{
  "contractName": "BaseOwnerFunctional",
  "abi": [
    {
      "inputs": [
        {
          "internalType": "address",
          "name": "distributor",
          "type": "address"
        }
      ],
      "stateMutability": "nonpayable",
      "type": "constructor"
    },
    {
      "anonymous": false,
      "inputs": [
        {
          "indexed": true,
          "internalType": "bytes32",
          "name": "role",
          "type": "bytes32"
        },
        {
          "indexed": true,
          "internalType": "bytes32",
          "name": "previousAdminRole",
          "type": "bytes32"
        },
        {
          "indexed": true,
          "internalType": "bytes32",
          "name": "newAdminRole",
          "type": "bytes32"
        }
      ],
      "name": "RoleAdminChanged",
      "type": "event"
    },
    {
      "anonymous": false,
      "inputs": [
        {
          "indexed": true,
          "internalType": "bytes32",
          "name": "role",
          "type": "bytes32"
        },
        {
          "indexed": true,
          "internalType": "address",
          "name": "account",
          "type": "address"
        },
        {
          "indexed": true,
          "internalType": "address",
          "name": "sender",
          "type": "address"
        }
      ],
      "name": "RoleGranted",
      "type": "event"
    },
    {
      "anonymous": false,
      "inputs": [
        {
          "indexed": true,
          "internalType": "bytes32",
          "name": "role",
          "type": "bytes32"
        },
        {
          "indexed": true,
          "internalType": "address",
          "name": "account",
          "type": "address"
        },
        {
          "indexed": true,
          "internalType": "address",
          "name": "sender",
          "type": "address"
        }
      ],
      "name": "RoleRevoked",
      "type": "event"
    },
    {
      "anonymous": false,
      "inputs": [
        {
          "indexed": false,
          "internalType": "uint256",
          "name": "id",
          "type": "uint256"
        },
        {
          "indexed": false,
          "internalType": "address",
          "name": "firstPlayer",
          "type": "address"
        },
        {
          "indexed": false,
          "internalType": "address",
          "name": "secondPlayer",
          "type": "address"
        },
        {
          "indexed": false,
          "internalType": "uint256",
          "name": "blockNumber",
          "type": "uint256"
        },
        {
          "indexed": false,
          "internalType": "uint256",
          "name": "timestamp",
          "type": "uint256"
        }
      ],
      "name": "RoomCreated",
      "type": "event"
    },
    {
      "inputs": [],
      "name": "ADMIN_ROLE",
      "outputs": [
        {
          "internalType": "bytes32",
          "name": "",
          "type": "bytes32"
        }
      ],
      "stateMutability": "view",
      "type": "function"
    },
    {
      "inputs": [],
      "name": "DEFAULT_ADMIN_ROLE",
      "outputs": [
        {
          "internalType": "bytes32",
          "name": "",
          "type": "bytes32"
        }
      ],
      "stateMutability": "view",
      "type": "function"
    },
    {
      "inputs": [],
      "name": "DISTRIBUTOR_ROLE",
      "outputs": [
        {
          "internalType": "bytes32",
          "name": "",
          "type": "bytes32"
        }
      ],
      "stateMutability": "view",
      "type": "function"
    },
    {
      "inputs": [],
      "name": "OWNER_ROLE",
      "outputs": [
        {
          "internalType": "bytes32",
          "name": "",
          "type": "bytes32"
        }
      ],
      "stateMutability": "view",
      "type": "function"
    },
    {
      "inputs": [
        {
          "internalType": "bytes32",
          "name": "role",
          "type": "bytes32"
        }
      ],
      "name": "getRoleAdmin",
      "outputs": [
        {
          "internalType": "bytes32",
          "name": "",
          "type": "bytes32"
        }
      ],
      "stateMutability": "view",
      "type": "function"
    },
    {
      "inputs": [
        {
          "internalType": "bytes32",
          "name": "role",
          "type": "bytes32"
        },
        {
          "internalType": "address",
          "name": "account",
          "type": "address"
        }
      ],
      "name": "grantRole",
      "outputs": [],
      "stateMutability": "nonpayable",
      "type": "function"
    },
    {
      "inputs": [
        {
          "internalType": "bytes32",
          "name": "role",
          "type": "bytes32"
        },
        {
          "internalType": "address",
          "name": "account",
          "type": "address"
        }
      ],
      "name": "hasRole",
      "outputs": [
        {
          "internalType": "bool",
          "name": "",
          "type": "bool"
        }
      ],
      "stateMutability": "view",
      "type": "function"
    },
    {
      "inputs": [
        {
          "internalType": "bytes32",
          "name": "role",
          "type": "bytes32"
        },
        {
          "internalType": "address",
          "name": "account",
          "type": "address"
        }
      ],
      "name": "renounceRole",
      "outputs": [],
      "stateMutability": "nonpayable",
      "type": "function"
    },
    {
      "inputs": [
        {
          "internalType": "bytes32",
          "name": "role",
          "type": "bytes32"
        },
        {
          "internalType": "address",
          "name": "account",
          "type": "address"
        }
      ],
      "name": "revokeRole",
      "outputs": [],
      "stateMutability": "nonpayable",
      "type": "function"
    },
    {
      "inputs": [
        {
          "internalType": "uint256",
          "name": "",
          "type": "uint256"
        }
      ],
      "name": "rooms",
      "outputs": [
        {
          "internalType": "uint256",
          "name": "id",
          "type": "uint256"
        },
        {
          "components": [
            {
              "internalType": "address",
              "name": "playerAddress",
              "type": "address"
            },
            {
              "internalType": "bool",
              "name": "commited",
              "type": "bool"
            },
            {
              "internalType": "bool",
              "name": "revealed",
              "type": "bool"
            },
            {
              "internalType": "enum BaseOwnerFunctional.Choice",
              "name": "choice",
              "type": "uint8"
            },
            {
              "internalType": "bytes32",
              "name": "commitment",
              "type": "bytes32"
            }
          ],
          "internalType": "struct BaseOwnerFunctional.Player",
          "name": "firstPlayer",
          "type": "tuple"
        },
        {
          "components": [
            {
              "internalType": "address",
              "name": "playerAddress",
              "type": "address"
            },
            {
              "internalType": "bool",
              "name": "commited",
              "type": "bool"
            },
            {
              "internalType": "bool",
              "name": "revealed",
              "type": "bool"
            },
            {
              "internalType": "enum BaseOwnerFunctional.Choice",
              "name": "choice",
              "type": "uint8"
            },
            {
              "internalType": "bytes32",
              "name": "commitment",
              "type": "bytes32"
            }
          ],
          "internalType": "struct BaseOwnerFunctional.Player",
          "name": "secondPlayer",
          "type": "tuple"
        },
        {
          "internalType": "enum BaseOwnerFunctional.Stage",
          "name": "stage",
          "type": "uint8"
        }
      ],
      "stateMutability": "view",
      "type": "function"
    },
    {
      "inputs": [
        {
          "internalType": "bytes4",
          "name": "interfaceId",
          "type": "bytes4"
        }
      ],
      "name": "supportsInterface",
      "outputs": [
        {
          "internalType": "bool",
          "name": "",
          "type": "bool"
        }
      ],
      "stateMutability": "view",
      "type": "function"
    },
    {
      "inputs": [
        {
          "internalType": "address",
          "name": "firstPlayerAddress",
          "type": "address"
        },
        {
          "internalType": "address",
          "name": "secondPlayerAddress",
          "type": "address"
        }
      ],
      "name": "createRoom",
      "outputs": [],
      "stateMutability": "nonpayable",
      "type": "function"
    },
    {
      "inputs": [
        {
          "internalType": "bytes32",
          "name": "role",
          "type": "bytes32"
        },
        {
          "internalType": "bytes32",
          "name": "adminRole",
          "type": "bytes32"
        }
      ],
      "name": "setRoleAdmin",
      "outputs": [],
      "stateMutability": "nonpayable",
      "type": "function"
    },
    {
      "inputs": [],
      "name": "getRoomCount",
      "outputs": [
        {
          "internalType": "uint256",
          "name": "",
          "type": "uint256"
        }
      ],
      "stateMutability": "view",
      "type": "function"
    },
    {
      "inputs": [
        {
          "internalType": "uint256",
          "name": "_id",
          "type": "uint256"
        }
      ],
      "name": "getRoomById",
      "outputs": [
        {
          "components": [
            {
              "internalType": "uint256",
              "name": "id",
              "type": "uint256"
            },
            {
              "components": [
                {
                  "internalType": "address",
                  "name": "playerAddress",
                  "type": "address"
                },
                {
                  "internalType": "bool",
                  "name": "commited",
                  "type": "bool"
                },
                {
                  "internalType": "bool",
                  "name": "revealed",
                  "type": "bool"
                },
                {
                  "internalType": "enum BaseOwnerFunctional.Choice",
                  "name": "choice",
                  "type": "uint8"
                },
                {
                  "internalType": "bytes32",
                  "name": "commitment",
                  "type": "bytes32"
                }
              ],
              "internalType": "struct BaseOwnerFunctional.Player",
              "name": "firstPlayer",
              "type": "tuple"
            },
            {
              "components": [
                {
                  "internalType": "address",
                  "name": "playerAddress",
                  "type": "address"
                },
                {
                  "internalType": "bool",
                  "name": "commited",
                  "type": "bool"
                },
                {
                  "internalType": "bool",
                  "name": "revealed",
                  "type": "bool"
                },
                {
                  "internalType": "enum BaseOwnerFunctional.Choice",
                  "name": "choice",
                  "type": "uint8"
                },
                {
                  "internalType": "bytes32",
                  "name": "commitment",
                  "type": "bytes32"
                }
              ],
              "internalType": "struct BaseOwnerFunctional.Player",
              "name": "secondPlayer",
              "type": "tuple"
            },
            {
              "internalType": "enum BaseOwnerFunctional.Stage",
              "name": "stage",
              "type": "uint8"
            }
          ],
          "internalType": "struct BaseOwnerFunctional.Room",
          "name": "",
          "type": "tuple"
        }
      ],
      "stateMutability": "view",
      "type": "function"
    }
  ],
  "bytecode": "0x60806040523480156200001157600080fd5b50604051620026073803806200260783398181016040528101906200003791906200046d565b620000956040516020016200004c90620004fa565b604051602081830303815290604052805190602001206040516020016200007390620004fa565b604051602081830303815290604052805190602001206200021e60201b60201c565b620000f3604051602001620000aa9062000561565b60405160208183030381529060405280519060200120604051602001620000d190620004fa565b604051602081830303815290604052805190602001206200021e60201b60201c565b620001516040516020016200010890620005c8565b604051602081830303815290604052805190602001206040516020016200012f9062000561565b604051602081830303815290604052805190602001206200021e60201b60201c565b620001986040516020016200016690620004fa565b604051602081830303815290604052805190602001206200018c6200028160201b60201c565b6200028960201b60201c565b620001df604051602001620001ad9062000561565b60405160208183030381529060405280519060200120620001d36200028160201b60201c565b6200028960201b60201c565b62000217604051602001620001f490620005c8565b60405160208183030381529060405280519060200120826200028960201b60201c565b50620005df565b600062000231836200037a60201b60201c565b905081600080858152602001908152602001600020600101819055508181847fbd79b86ffe0ab8e8776151514217cd7cacd52c909f66475c3af44e129f0b00ff60405160405180910390a4505050565b600033905090565b6200029b82826200039960201b60201c565b6200037657600160008084815260200190815260200160002060000160008373ffffffffffffffffffffffffffffffffffffffff1673ffffffffffffffffffffffffffffffffffffffff16815260200190815260200160002060006101000a81548160ff0219169083151502179055506200031b6200028160201b60201c565b73ffffffffffffffffffffffffffffffffffffffff168173ffffffffffffffffffffffffffffffffffffffff16837f2f8788117e7eff1d82e926ec794901d17c78024a50270940304540a733656f0d60405160405180910390a45b5050565b6000806000838152602001908152602001600020600101549050919050565b600080600084815260200190815260200160002060000160008373ffffffffffffffffffffffffffffffffffffffff1673ffffffffffffffffffffffffffffffffffffffff16815260200190815260200160002060009054906101000a900460ff16905092915050565b600080fd5b600073ffffffffffffffffffffffffffffffffffffffff82169050919050565b6000620004358262000408565b9050919050565b620004478162000428565b81146200045357600080fd5b50565b60008151905062000467816200043c565b92915050565b60006020828403121562000486576200048562000403565b5b6000620004968482850162000456565b91505092915050565b600081905092915050565b7f4f574e45525f524f4c4500000000000000000000000000000000000000000000600082015250565b6000620004e2600a836200049f565b9150620004ef82620004aa565b600a82019050919050565b60006200050782620004d3565b9150819050919050565b7f41444d494e5f524f4c4500000000000000000000000000000000000000000000600082015250565b600062000549600a836200049f565b9150620005568262000511565b600a82019050919050565b60006200056e826200053a565b9150819050919050565b7f4449535452494255544f525f524f4c4500000000000000000000000000000000600082015250565b6000620005b06010836200049f565b9150620005bd8262000578565b601082019050919050565b6000620005d582620005a1565b9150819050919050565b61201880620005ef6000396000f3fe608060405234801561001057600080fd5b50600436106100f55760003560e01c806375b238fc11610097578063e58378bb11610066578063e58378bb14610299578063eadddb3c146102b7578063f0bd87cc146102d5578063f9a5918f146102f3576100f5565b806375b238fc1461021157806391d148541461022f578063a217fddf1461025f578063d547741f1461027d576100f5565b8063248a9ca3116100d3578063248a9ca3146101795780632f2ff15d146101a95780633495655a146101c557806336568abe146101f5576100f5565b806301ffc9a7146100fa5780631bae0ac81461012a5780631e4e00911461015d575b600080fd5b610114600480360381019061010f919061144d565b61030f565b6040516101219190611495565b60405180910390f35b610144600480360381019061013f91906114e6565b610389565b60405161015494939291906116b2565b60405180910390f35b61017760048036038101906101729190611725565b61057c565b005b610193600480360381019061018e9190611765565b6105b9565b6040516101a091906117a1565b60405180910390f35b6101c360048036038101906101be91906117e8565b6105d8565b005b6101df60048036038101906101da91906114e6565b6105f9565b6040516101ec9190611905565b60405180910390f35b61020f600480360381019061020a91906117e8565b610835565b005b6102196108b8565b60405161022691906117a1565b60405180910390f35b610249600480360381019061024491906117e8565b6108e0565b6040516102569190611495565b60405180910390f35b61026761094a565b60405161027491906117a1565b60405180910390f35b610297600480360381019061029291906117e8565b610951565b005b6102a1610972565b6040516102ae91906117a1565b60405180910390f35b6102bf61099a565b6040516102cc9190611921565b60405180910390f35b6102dd6109d3565b6040516102ea91906117a1565b60405180910390f35b61030d6004803603810190610308919061193c565b6109fb565b005b60007f7965db0b000000000000000000000000000000000000000000000000000000007bffffffffffffffffffffffffffffffffffffffffffffffffffffffff1916827bffffffffffffffffffffffffffffffffffffffffffffffffffffffff19161480610382575061038182610dd1565b5b9050919050565b6002602052806000526040600020600091509050806000015490806001016040518060a00160405290816000820160009054906101000a900473ffffffffffffffffffffffffffffffffffffffff1673ffffffffffffffffffffffffffffffffffffffff1673ffffffffffffffffffffffffffffffffffffffff1681526020016000820160149054906101000a900460ff161515151581526020016000820160159054906101000a900460ff161515151581526020016000820160169054906101000a900460ff16600381111561046357610462611572565b5b600381111561047557610474611572565b5b815260200160018201548152505090806003016040518060a00160405290816000820160009054906101000a900473ffffffffffffffffffffffffffffffffffffffff1673ffffffffffffffffffffffffffffffffffffffff1673ffffffffffffffffffffffffffffffffffffffff1681526020016000820160149054906101000a900460ff161515151581526020016000820160159054906101000a900460ff161515151581526020016000820160169054906101000a900460ff16600381111561054457610543611572565b5b600381111561055657610555611572565b5b8152602001600182015481525050908060050160009054906101000a900460ff16905084565b60405160200161058b906119d3565b604051602081830303815290604052805190602001206105aa81610e3b565b6105b48383610e4f565b505050565b6000806000838152602001908152602001600020600101549050919050565b6105e1826105b9565b6105ea81610e3b565b6105f48383610eaa565b505050565b61060161134c565b6002600083815260200190815260200160002060405180608001604052908160008201548152602001600182016040518060a00160405290816000820160009054906101000a900473ffffffffffffffffffffffffffffffffffffffff1673ffffffffffffffffffffffffffffffffffffffff1673ffffffffffffffffffffffffffffffffffffffff1681526020016000820160149054906101000a900460ff161515151581526020016000820160159054906101000a900460ff161515151581526020016000820160169054906101000a900460ff1660038111156106ea576106e9611572565b5b60038111156106fc576106fb611572565b5b81526020016001820154815250508152602001600382016040518060a00160405290816000820160009054906101000a900473ffffffffffffffffffffffffffffffffffffffff1673ffffffffffffffffffffffffffffffffffffffff1673ffffffffffffffffffffffffffffffffffffffff1681526020016000820160149054906101000a900460ff161515151581526020016000820160159054906101000a900460ff161515151581526020016000820160169054906101000a900460ff1660038111156107cf576107ce611572565b5b60038111156107e1576107e0611572565b5b815260200160018201548152505081526020016005820160009054906101000a900460ff16600281111561081857610817611572565b5b600281111561082a57610829611572565b5b815250509050919050565b61083d610f8a565b73ffffffffffffffffffffffffffffffffffffffff168173ffffffffffffffffffffffffffffffffffffffff16146108aa576040517f08c379a00000000000000000000000000000000000000000000000000000000081526004016108a190611a6b565b60405180910390fd5b6108b48282610f92565b5050565b6040516020016108c790611ad7565b6040516020818303038152906040528051906020012081565b600080600084815260200190815260200160002060000160008373ffffffffffffffffffffffffffffffffffffffff1673ffffffffffffffffffffffffffffffffffffffff16815260200190815260200160002060009054906101000a900460ff16905092915050565b6000801b81565b61095a826105b9565b61096381610e3b565b61096d8383610f92565b505050565b604051602001610981906119d3565b6040516020818303038152906040528051906020012081565b60006040516020016109ab906119d3565b604051602081830303815290604052805190602001206109ca81610e3b565b60015491505090565b6040516020016109e290611b38565b6040516020818303038152906040528051906020012081565b604051602001610a0a906119d3565b60405160208183030381529060405280519060200120610a2981610e3b565b8173ffffffffffffffffffffffffffffffffffffffff168373ffffffffffffffffffffffffffffffffffffffff1603610a97576040517f08c379a0000000000000000000000000000000000000000000000000000000008152600401610a8e90611b99565b60405180910390fd5b60006040518060a001604052808573ffffffffffffffffffffffffffffffffffffffff16815260200160001515815260200160001515815260200160006003811115610ae657610ae5611572565b5b81526020016000801b815250905060006040518060a001604052808573ffffffffffffffffffffffffffffffffffffffff16815260200160001515815260200160001515815260200160006003811115610b4357610b42611572565b5b81526020016000801b81525090506040518060800160405280600154815260200183815260200182815260200160006002811115610b8457610b83611572565b5b8152506002600060015481526020019081526020016000206000820151816000015560208201518160010160008201518160000160006101000a81548173ffffffffffffffffffffffffffffffffffffffff021916908373ffffffffffffffffffffffffffffffffffffffff16021790555060208201518160000160146101000a81548160ff02191690831515021790555060408201518160000160156101000a81548160ff02191690831515021790555060608201518160000160166101000a81548160ff02191690836003811115610c6157610c60611572565b5b021790555060808201518160010155505060408201518160030160008201518160000160006101000a81548173ffffffffffffffffffffffffffffffffffffffff021916908373ffffffffffffffffffffffffffffffffffffffff16021790555060208201518160000160146101000a81548160ff02191690831515021790555060408201518160000160156101000a81548160ff02191690831515021790555060608201518160000160166101000a81548160ff02191690836003811115610d2d57610d2c611572565b5b021790555060808201518160010155505060608201518160050160006101000a81548160ff02191690836002811115610d6957610d68611572565b5b02179055509050507fcd359a5a81a67a8cba1fa58a9d77fcf61bd58c6ebc6703100aa52cceefffa08d60015486864342604051610daa959493929190611bc8565b60405180910390a160016000815480929190610dc590611c4a565b91905055505050505050565b60007f01ffc9a7000000000000000000000000000000000000000000000000000000007bffffffffffffffffffffffffffffffffffffffffffffffffffffffff1916827bffffffffffffffffffffffffffffffffffffffffffffffffffffffff1916149050919050565b610e4c81610e47610f8a565b611073565b50565b6000610e5a836105b9565b905081600080858152602001908152602001600020600101819055508181847fbd79b86ffe0ab8e8776151514217cd7cacd52c909f66475c3af44e129f0b00ff60405160405180910390a4505050565b610eb482826108e0565b610f8657600160008084815260200190815260200160002060000160008373ffffffffffffffffffffffffffffffffffffffff1673ffffffffffffffffffffffffffffffffffffffff16815260200190815260200160002060006101000a81548160ff021916908315150217905550610f2b610f8a565b73ffffffffffffffffffffffffffffffffffffffff168173ffffffffffffffffffffffffffffffffffffffff16837f2f8788117e7eff1d82e926ec794901d17c78024a50270940304540a733656f0d60405160405180910390a45b5050565b600033905090565b610f9c82826108e0565b1561106f57600080600084815260200190815260200160002060000160008373ffffffffffffffffffffffffffffffffffffffff1673ffffffffffffffffffffffffffffffffffffffff16815260200190815260200160002060006101000a81548160ff021916908315150217905550611014610f8a565b73ffffffffffffffffffffffffffffffffffffffff168173ffffffffffffffffffffffffffffffffffffffff16837ff6391f5c32d9c69d2a47ea670b442974b53935d1edc7fd64eb21e047a839171b60405160405180910390a45b5050565b61107d82826108e0565b61110c576110a28173ffffffffffffffffffffffffffffffffffffffff166014611110565b6110b08360001c6020611110565b6040516020016110c1929190611d99565b6040516020818303038152906040526040517f08c379a00000000000000000000000000000000000000000000000000000000081526004016111039190611e1d565b60405180910390fd5b5050565b6060600060028360026111239190611e3f565b61112d9190611e99565b67ffffffffffffffff81111561114657611145611eef565b5b6040519080825280601f01601f1916602001820160405280156111785781602001600182028036833780820191505090505b5090507f3000000000000000000000000000000000000000000000000000000000000000816000815181106111b0576111af611f1e565b5b60200101907effffffffffffffffffffffffffffffffffffffffffffffffffffffffffffff1916908160001a9053507f78000000000000000000000000000000000000000000000000000000000000008160018151811061121457611213611f1e565b5b60200101907effffffffffffffffffffffffffffffffffffffffffffffffffffffffffffff1916908160001a905350600060018460026112549190611e3f565b61125e9190611e99565b90505b60018111156112fe577f3031323334353637383961626364656600000000000000000000000000000000600f8616601081106112a05761129f611f1e565b5b1a60f81b8282815181106112b7576112b6611f1e565b5b60200101907effffffffffffffffffffffffffffffffffffffffffffffffffffffffffffff1916908160001a905350600485901c9450806112f790611f4d565b9050611261565b5060008414611342576040517f08c379a000000000000000000000000000000000000000000000000000000000815260040161133990611fc2565b60405180910390fd5b8091505092915050565b604051806080016040528060008152602001611366611392565b8152602001611373611392565b81526020016000600281111561138c5761138b611572565b5b81525090565b6040518060a00160405280600073ffffffffffffffffffffffffffffffffffffffff168152602001600015158152602001600015158152602001600060038111156113e0576113df611572565b5b8152602001600080191681525090565b600080fd5b60007fffffffff0000000000000000000000000000000000000000000000000000000082169050919050565b61142a816113f5565b811461143557600080fd5b50565b60008135905061144781611421565b92915050565b600060208284031215611463576114626113f0565b5b600061147184828501611438565b91505092915050565b60008115159050919050565b61148f8161147a565b82525050565b60006020820190506114aa6000830184611486565b92915050565b6000819050919050565b6114c3816114b0565b81146114ce57600080fd5b50565b6000813590506114e0816114ba565b92915050565b6000602082840312156114fc576114fb6113f0565b5b600061150a848285016114d1565b91505092915050565b61151c816114b0565b82525050565b600073ffffffffffffffffffffffffffffffffffffffff82169050919050565b600061154d82611522565b9050919050565b61155d81611542565b82525050565b61156c8161147a565b82525050565b7f4e487b7100000000000000000000000000000000000000000000000000000000600052602160045260246000fd5b600481106115b2576115b1611572565b5b50565b60008190506115c3826115a1565b919050565b60006115d3826115b5565b9050919050565b6115e3816115c8565b82525050565b6000819050919050565b6115fc816115e9565b82525050565b60a0820160008201516116186000850182611554565b50602082015161162b6020850182611563565b50604082015161163e6040850182611563565b50606082015161165160608501826115da565b50608082015161166460808501826115f3565b50505050565b6003811061167b5761167a611572565b5b50565b600081905061168c8261166a565b919050565b600061169c8261167e565b9050919050565b6116ac81611691565b82525050565b6000610180820190506116c86000830187611513565b6116d56020830186611602565b6116e260c0830185611602565b6116f06101608301846116a3565b95945050505050565b611702816115e9565b811461170d57600080fd5b50565b60008135905061171f816116f9565b92915050565b6000806040838503121561173c5761173b6113f0565b5b600061174a85828601611710565b925050602061175b85828601611710565b9150509250929050565b60006020828403121561177b5761177a6113f0565b5b600061178984828501611710565b91505092915050565b61179b816115e9565b82525050565b60006020820190506117b66000830184611792565b92915050565b6117c581611542565b81146117d057600080fd5b50565b6000813590506117e2816117bc565b92915050565b600080604083850312156117ff576117fe6113f0565b5b600061180d85828601611710565b925050602061181e858286016117d3565b9150509250929050565b611831816114b0565b82525050565b60a08201600082015161184d6000850182611554565b5060208201516118606020850182611563565b5060408201516118736040850182611563565b50606082015161188660608501826115da565b50608082015161189960808501826115f3565b50505050565b6118a881611691565b82525050565b610180820160008201516118c56000850182611828565b5060208201516118d86020850182611837565b5060408201516118eb60c0850182611837565b5060608201516118ff61016085018261189f565b50505050565b60006101808201905061191b60008301846118ae565b92915050565b60006020820190506119366000830184611513565b92915050565b60008060408385031215611953576119526113f0565b5b6000611961858286016117d3565b9250506020611972858286016117d3565b9150509250929050565b600081905092915050565b7f4f574e45525f524f4c4500000000000000000000000000000000000000000000600082015250565b60006119bd600a8361197c565b91506119c882611987565b600a82019050919050565b60006119de826119b0565b9150819050919050565b600082825260208201905092915050565b7f416363657373436f6e74726f6c3a2063616e206f6e6c792072656e6f756e636560008201527f20726f6c657320666f722073656c660000000000000000000000000000000000602082015250565b6000611a55602f836119e8565b9150611a60826119f9565b604082019050919050565b60006020820190508181036000830152611a8481611a48565b9050919050565b7f41444d494e5f524f4c4500000000000000000000000000000000000000000000600082015250565b6000611ac1600a8361197c565b9150611acc82611a8b565b600a82019050919050565b6000611ae282611ab4565b9150819050919050565b7f4449535452494255544f525f524f4c4500000000000000000000000000000000600082015250565b6000611b2260108361197c565b9150611b2d82611aec565b601082019050919050565b6000611b4382611b15565b9150819050919050565b7f416464726573733a2073616d652076616c756521000000000000000000000000600082015250565b6000611b836014836119e8565b9150611b8e82611b4d565b602082019050919050565b60006020820190508181036000830152611bb281611b76565b9050919050565b611bc281611542565b82525050565b600060a082019050611bdd6000830188611513565b611bea6020830187611bb9565b611bf76040830186611bb9565b611c046060830185611513565b611c116080830184611513565b9695505050505050565b7f4e487b7100000000000000000000000000000000000000000000000000000000600052601160045260246000fd5b6000611c55826114b0565b91507fffffffffffffffffffffffffffffffffffffffffffffffffffffffffffffffff8203611c8757611c86611c1b565b5b600182019050919050565b7f416363657373436f6e74726f6c3a206163636f756e7420000000000000000000600082015250565b6000611cc860178361197c565b9150611cd382611c92565b601782019050919050565b600081519050919050565b60005b83811015611d07578082015181840152602081019050611cec565b83811115611d16576000848401525b50505050565b6000611d2782611cde565b611d31818561197c565b9350611d41818560208601611ce9565b80840191505092915050565b7f206973206d697373696e6720726f6c6520000000000000000000000000000000600082015250565b6000611d8360118361197c565b9150611d8e82611d4d565b601182019050919050565b6000611da482611cbb565b9150611db08285611d1c565b9150611dbb82611d76565b9150611dc78284611d1c565b91508190509392505050565b6000601f19601f8301169050919050565b6000611def82611cde565b611df981856119e8565b9350611e09818560208601611ce9565b611e1281611dd3565b840191505092915050565b60006020820190508181036000830152611e378184611de4565b905092915050565b6000611e4a826114b0565b9150611e55836114b0565b9250817fffffffffffffffffffffffffffffffffffffffffffffffffffffffffffffffff0483118215151615611e8e57611e8d611c1b565b5b828202905092915050565b6000611ea4826114b0565b9150611eaf836114b0565b9250827fffffffffffffffffffffffffffffffffffffffffffffffffffffffffffffffff03821115611ee457611ee3611c1b565b5b828201905092915050565b7f4e487b7100000000000000000000000000000000000000000000000000000000600052604160045260246000fd5b7f4e487b7100000000000000000000000000000000000000000000000000000000600052603260045260246000fd5b6000611f58826114b0565b915060008203611f6b57611f6a611c1b565b5b600182039050919050565b7f537472696e67733a20686578206c656e67746820696e73756666696369656e74600082015250565b6000611fac6020836119e8565b9150611fb782611f76565b602082019050919050565b60006020820190508181036000830152611fdb81611f9f565b905091905056fea26469706673582212200ac2472b1123a5f8b2667bf3f4a4cb81450097eeca4a0c8b0d7aa11cdfe8acc264736f6c634300080e0033",
  "immutableReferences": {},
  "source": "//SPDX-License-Identifier: Unlicense\r\npragma solidity ^0.8.0;\r\n\r\nimport \"@openzeppelin/contracts/access/Ownable.sol\";\r\nimport \"@openzeppelin/contracts/access/AccessControl.sol\";\r\n\r\n/**\r\n * @dev Contract module which provides a basic access control mechanism, where\r\n * there is an account (an owner) that can be granted exclusive access to\r\n * specific functions.\r\n *\r\n * By default, the owner account will be the one that deploys the contract. This\r\n * can later be changed with {transferOwnership}.\r\n *\r\n * This module is used through inheritance. It will make available the modifier\r\n * `onlyOwner`, which can be applied to your functions to restrict their use to\r\n * the owner.\r\n */\r\ncontract BaseOwnerFunctional is AccessControl {\r\n    bytes32 public constant OWNER_ROLE =\r\n        keccak256(abi.encodePacked(\"OWNER_ROLE\"));\r\n    bytes32 public constant ADMIN_ROLE =\r\n        keccak256(abi.encodePacked(\"ADMIN_ROLE\"));\r\n    bytes32 public constant DISTRIBUTOR_ROLE =\r\n        keccak256(abi.encodePacked(\"DISTRIBUTOR_ROLE\"));\r\n\r\n    constructor(address distributor) {\r\n        _setRoleAdmin(OWNER_ROLE, OWNER_ROLE);\r\n        _setRoleAdmin(ADMIN_ROLE, OWNER_ROLE);\r\n        _setRoleAdmin(DISTRIBUTOR_ROLE, ADMIN_ROLE);\r\n\r\n        _grantRole(OWNER_ROLE, _msgSender());\r\n        _grantRole(ADMIN_ROLE, _msgSender());\r\n        _grantRole(DISTRIBUTOR_ROLE, distributor);\r\n    }\r\n\r\n    struct Player {\r\n        address playerAddress;\r\n        bool commited;\r\n        bool revealed;\r\n        Choice choice;\r\n        bytes32 commitment;\r\n    }\r\n\r\n    enum Stage {\r\n        Commit,\r\n        Reveal,\r\n        Distribute\r\n    }\r\n\r\n    enum Choice {\r\n        None,\r\n        Rock,\r\n        Paper,\r\n        Scissors\r\n    }\r\n\r\n    struct Room {\r\n        uint256 id;\r\n        Player firstPlayer;\r\n        Player secondPlayer;\r\n        Stage stage;\r\n    }\r\n\r\n    uint256 private roomCount;\r\n    mapping(uint256 => Room) public rooms;\r\n\r\n    event RoomCreated(\r\n        uint256 id,\r\n        address firstPlayer,\r\n        address secondPlayer,\r\n        uint256 blockNumber,\r\n        uint256 timestamp\r\n    );\r\n\r\n    function createRoom(address firstPlayerAddress, address secondPlayerAddress)\r\n        external\r\n        onlyRole(OWNER_ROLE)\r\n    {\r\n        require(\r\n            firstPlayerAddress != secondPlayerAddress,\r\n            \"Address: same value!\"\r\n        );\r\n\r\n        Player memory firstPlayer = Player(\r\n            firstPlayerAddress,\r\n            false,\r\n            false,\r\n            Choice.None,\r\n            bytes32(0)\r\n        );\r\n        Player memory secondPlayer = Player(\r\n            secondPlayerAddress,\r\n            false,\r\n            false,\r\n            Choice.None,\r\n            bytes32(0)\r\n        );\r\n\r\n        rooms[roomCount] = Room(\r\n            roomCount,\r\n            firstPlayer,\r\n            secondPlayer,\r\n            Stage.Commit\r\n        );\r\n\r\n        emit RoomCreated(\r\n            roomCount,\r\n            firstPlayerAddress,\r\n            secondPlayerAddress,\r\n            block.number,\r\n            block.timestamp\r\n        );\r\n\r\n        roomCount++;\r\n    }\r\n\r\n    /**\r\n     * @dev Sets `adminRole` as ``role``'s admin role.\r\n     *\r\n     * Emits a {RoleAdminChanged} event.\r\n     */\r\n    function setRoleAdmin(bytes32 role, bytes32 adminRole)\r\n        external\r\n        onlyRole(OWNER_ROLE)\r\n    {\r\n        _setRoleAdmin(role, adminRole);\r\n    }\r\n\r\n    //         \r\n    function getRoomCount()\r\n        external\r\n        view\r\n        onlyRole(OWNER_ROLE)\r\n        returns (uint256)\r\n    {\r\n        return roomCount;\r\n    }\r\n\r\n    // \r\n    function getRoomById(uint256 _id) public view returns (Room memory) {\r\n        return rooms[_id];\r\n    }\r\n}\r\n",
  "sourcePath": "C:\\Users\\vania\\Documents\\GitHub\\rock-paper-scissors-solidity\\blockchain\\contracts\\BaseOwnerFunctional.sol",
  "compiler": {
    "name": "solc",
    "version": "0.8.14+commit.80d49f37.Emscripten.clang"
  },
  "schemaVersion": "3.4.7",
  "updatedAt": "2022-07-07T13:20:31.403Z",
  "devdoc": {
    "details": "Contract module which provides a basic access control mechanism, where there is an account (an owner) that can be granted exclusive access to specific functions. By default, the owner account will be the one that deploys the contract. This can later be changed with {transferOwnership}. This module is used through inheritance. It will make available the modifier `onlyOwner`, which can be applied to your functions to restrict their use to the owner.",
    "kind": "dev",
    "methods": {
      "getRoleAdmin(bytes32)": {
        "details": "Returns the admin role that controls `role`. See {grantRole} and {revokeRole}. To change a role's admin, use {_setRoleAdmin}."
      },
      "grantRole(bytes32,address)": {
        "details": "Grants `role` to `account`. If `account` had not been already granted `role`, emits a {RoleGranted} event. Requirements: - the caller must have ``role``'s admin role."
      },
      "hasRole(bytes32,address)": {
        "details": "Returns `true` if `account` has been granted `role`."
      },
      "renounceRole(bytes32,address)": {
        "details": "Revokes `role` from the calling account. Roles are often managed via {grantRole} and {revokeRole}: this function's purpose is to provide a mechanism for accounts to lose their privileges if they are compromised (such as when a trusted device is misplaced). If the calling account had been revoked `role`, emits a {RoleRevoked} event. Requirements: - the caller must be `account`."
      },
      "revokeRole(bytes32,address)": {
        "details": "Revokes `role` from `account`. If `account` had been granted `role`, emits a {RoleRevoked} event. Requirements: - the caller must have ``role``'s admin role."
      },
      "setRoleAdmin(bytes32,bytes32)": {
        "details": "Sets `adminRole` as ``role``'s admin role. Emits a {RoleAdminChanged} event."
      },
      "supportsInterface(bytes4)": {
        "details": "See {IERC165-supportsInterface}."
      }
    },
    "version": 1
  },
  "userdoc": {
    "kind": "user",
    "methods": {},
    "version": 1
  }
}