{
  "contractName": "RockPaperScissors",
  "abi": [
    {
      "inputs": [
        {
          "internalType": "address",
          "name": "distributor",
          "type": "address"
        }
      ],
      "stateMutability": "nonpayable",
      "type": "constructor"
    },
    {
      "anonymous": false,
      "inputs": [
        {
          "indexed": true,
          "internalType": "uint256",
          "name": "id",
          "type": "uint256"
        },
        {
          "indexed": false,
          "internalType": "address",
          "name": "player",
          "type": "address"
        }
      ],
      "name": "Commit",
      "type": "event"
    },
    {
      "anonymous": false,
      "inputs": [
        {
          "indexed": true,
          "internalType": "uint256",
          "name": "id",
          "type": "uint256"
        },
        {
          "indexed": false,
          "internalType": "enum BaseOwnerFunctional.Stage",
          "name": "stage",
          "type": "uint8"
        }
      ],
      "name": "Distributed",
      "type": "event"
    },
    {
      "anonymous": false,
      "inputs": [
        {
          "indexed": false,
          "internalType": "address",
          "name": "winner",
          "type": "address"
        }
      ],
      "name": "GameResult",
      "type": "event"
    },
    {
      "anonymous": false,
      "inputs": [
        {
          "indexed": true,
          "internalType": "uint256",
          "name": "id",
          "type": "uint256"
        },
        {
          "indexed": false,
          "internalType": "address",
          "name": "player",
          "type": "address"
        },
        {
          "indexed": false,
          "internalType": "enum BaseOwnerFunctional.Choice",
          "name": "choice",
          "type": "uint8"
        }
      ],
      "name": "Reveal",
      "type": "event"
    },
    {
      "anonymous": false,
      "inputs": [
        {
          "indexed": true,
          "internalType": "bytes32",
          "name": "role",
          "type": "bytes32"
        },
        {
          "indexed": true,
          "internalType": "bytes32",
          "name": "previousAdminRole",
          "type": "bytes32"
        },
        {
          "indexed": true,
          "internalType": "bytes32",
          "name": "newAdminRole",
          "type": "bytes32"
        }
      ],
      "name": "RoleAdminChanged",
      "type": "event"
    },
    {
      "anonymous": false,
      "inputs": [
        {
          "indexed": true,
          "internalType": "bytes32",
          "name": "role",
          "type": "bytes32"
        },
        {
          "indexed": true,
          "internalType": "address",
          "name": "account",
          "type": "address"
        },
        {
          "indexed": true,
          "internalType": "address",
          "name": "sender",
          "type": "address"
        }
      ],
      "name": "RoleGranted",
      "type": "event"
    },
    {
      "anonymous": false,
      "inputs": [
        {
          "indexed": true,
          "internalType": "bytes32",
          "name": "role",
          "type": "bytes32"
        },
        {
          "indexed": true,
          "internalType": "address",
          "name": "account",
          "type": "address"
        },
        {
          "indexed": true,
          "internalType": "address",
          "name": "sender",
          "type": "address"
        }
      ],
      "name": "RoleRevoked",
      "type": "event"
    },
    {
      "anonymous": false,
      "inputs": [
        {
          "indexed": false,
          "internalType": "uint256",
          "name": "id",
          "type": "uint256"
        },
        {
          "indexed": false,
          "internalType": "address",
          "name": "firstPlayer",
          "type": "address"
        },
        {
          "indexed": false,
          "internalType": "address",
          "name": "secondPlayer",
          "type": "address"
        },
        {
          "indexed": false,
          "internalType": "uint256",
          "name": "blockNumber",
          "type": "uint256"
        },
        {
          "indexed": false,
          "internalType": "uint256",
          "name": "timestamp",
          "type": "uint256"
        }
      ],
      "name": "RoomCreated",
      "type": "event"
    },
    {
      "anonymous": false,
      "inputs": [
        {
          "indexed": true,
          "internalType": "uint256",
          "name": "id",
          "type": "uint256"
        },
        {
          "indexed": false,
          "internalType": "enum BaseOwnerFunctional.Stage",
          "name": "stage",
          "type": "uint8"
        }
      ],
      "name": "StageChanged",
      "type": "event"
    },
    {
      "inputs": [],
      "name": "ADMIN_ROLE",
      "outputs": [
        {
          "internalType": "bytes32",
          "name": "",
          "type": "bytes32"
        }
      ],
      "stateMutability": "view",
      "type": "function"
    },
    {
      "inputs": [],
      "name": "DEFAULT_ADMIN_ROLE",
      "outputs": [
        {
          "internalType": "bytes32",
          "name": "",
          "type": "bytes32"
        }
      ],
      "stateMutability": "view",
      "type": "function"
    },
    {
      "inputs": [],
      "name": "DISTRIBUTOR_ROLE",
      "outputs": [
        {
          "internalType": "bytes32",
          "name": "",
          "type": "bytes32"
        }
      ],
      "stateMutability": "view",
      "type": "function"
    },
    {
      "inputs": [],
      "name": "OWNER_ROLE",
      "outputs": [
        {
          "internalType": "bytes32",
          "name": "",
          "type": "bytes32"
        }
      ],
      "stateMutability": "view",
      "type": "function"
    },
    {
      "inputs": [
        {
          "internalType": "address",
          "name": "firstPlayerAddress",
          "type": "address"
        },
        {
          "internalType": "address",
          "name": "secondPlayerAddress",
          "type": "address"
        }
      ],
      "name": "createRoom",
      "outputs": [],
      "stateMutability": "nonpayable",
      "type": "function"
    },
    {
      "inputs": [
        {
          "internalType": "bytes32",
          "name": "role",
          "type": "bytes32"
        }
      ],
      "name": "getRoleAdmin",
      "outputs": [
        {
          "internalType": "bytes32",
          "name": "",
          "type": "bytes32"
        }
      ],
      "stateMutability": "view",
      "type": "function"
    },
    {
      "inputs": [
        {
          "internalType": "uint256",
          "name": "_id",
          "type": "uint256"
        }
      ],
      "name": "getRoomById",
      "outputs": [
        {
          "components": [
            {
              "internalType": "uint256",
              "name": "id",
              "type": "uint256"
            },
            {
              "components": [
                {
                  "internalType": "address",
                  "name": "playerAddress",
                  "type": "address"
                },
                {
                  "internalType": "bool",
                  "name": "commited",
                  "type": "bool"
                },
                {
                  "internalType": "bool",
                  "name": "revealed",
                  "type": "bool"
                },
                {
                  "internalType": "enum BaseOwnerFunctional.Choice",
                  "name": "choice",
                  "type": "uint8"
                },
                {
                  "internalType": "bytes32",
                  "name": "commitment",
                  "type": "bytes32"
                }
              ],
              "internalType": "struct BaseOwnerFunctional.Player",
              "name": "firstPlayer",
              "type": "tuple"
            },
            {
              "components": [
                {
                  "internalType": "address",
                  "name": "playerAddress",
                  "type": "address"
                },
                {
                  "internalType": "bool",
                  "name": "commited",
                  "type": "bool"
                },
                {
                  "internalType": "bool",
                  "name": "revealed",
                  "type": "bool"
                },
                {
                  "internalType": "enum BaseOwnerFunctional.Choice",
                  "name": "choice",
                  "type": "uint8"
                },
                {
                  "internalType": "bytes32",
                  "name": "commitment",
                  "type": "bytes32"
                }
              ],
              "internalType": "struct BaseOwnerFunctional.Player",
              "name": "secondPlayer",
              "type": "tuple"
            },
            {
              "internalType": "enum BaseOwnerFunctional.Stage",
              "name": "stage",
              "type": "uint8"
            }
          ],
          "internalType": "struct BaseOwnerFunctional.Room",
          "name": "",
          "type": "tuple"
        }
      ],
      "stateMutability": "view",
      "type": "function"
    },
    {
      "inputs": [],
      "name": "getRoomCount",
      "outputs": [
        {
          "internalType": "uint256",
          "name": "",
          "type": "uint256"
        }
      ],
      "stateMutability": "view",
      "type": "function"
    },
    {
      "inputs": [
        {
          "internalType": "bytes32",
          "name": "role",
          "type": "bytes32"
        },
        {
          "internalType": "address",
          "name": "account",
          "type": "address"
        }
      ],
      "name": "grantRole",
      "outputs": [],
      "stateMutability": "nonpayable",
      "type": "function"
    },
    {
      "inputs": [
        {
          "internalType": "bytes32",
          "name": "role",
          "type": "bytes32"
        },
        {
          "internalType": "address",
          "name": "account",
          "type": "address"
        }
      ],
      "name": "hasRole",
      "outputs": [
        {
          "internalType": "bool",
          "name": "",
          "type": "bool"
        }
      ],
      "stateMutability": "view",
      "type": "function"
    },
    {
      "inputs": [
        {
          "internalType": "bytes32",
          "name": "role",
          "type": "bytes32"
        },
        {
          "internalType": "address",
          "name": "account",
          "type": "address"
        }
      ],
      "name": "renounceRole",
      "outputs": [],
      "stateMutability": "nonpayable",
      "type": "function"
    },
    {
      "inputs": [
        {
          "internalType": "bytes32",
          "name": "role",
          "type": "bytes32"
        },
        {
          "internalType": "address",
          "name": "account",
          "type": "address"
        }
      ],
      "name": "revokeRole",
      "outputs": [],
      "stateMutability": "nonpayable",
      "type": "function"
    },
    {
      "inputs": [
        {
          "internalType": "uint256",
          "name": "",
          "type": "uint256"
        }
      ],
      "name": "rooms",
      "outputs": [
        {
          "internalType": "uint256",
          "name": "id",
          "type": "uint256"
        },
        {
          "components": [
            {
              "internalType": "address",
              "name": "playerAddress",
              "type": "address"
            },
            {
              "internalType": "bool",
              "name": "commited",
              "type": "bool"
            },
            {
              "internalType": "bool",
              "name": "revealed",
              "type": "bool"
            },
            {
              "internalType": "enum BaseOwnerFunctional.Choice",
              "name": "choice",
              "type": "uint8"
            },
            {
              "internalType": "bytes32",
              "name": "commitment",
              "type": "bytes32"
            }
          ],
          "internalType": "struct BaseOwnerFunctional.Player",
          "name": "firstPlayer",
          "type": "tuple"
        },
        {
          "components": [
            {
              "internalType": "address",
              "name": "playerAddress",
              "type": "address"
            },
            {
              "internalType": "bool",
              "name": "commited",
              "type": "bool"
            },
            {
              "internalType": "bool",
              "name": "revealed",
              "type": "bool"
            },
            {
              "internalType": "enum BaseOwnerFunctional.Choice",
              "name": "choice",
              "type": "uint8"
            },
            {
              "internalType": "bytes32",
              "name": "commitment",
              "type": "bytes32"
            }
          ],
          "internalType": "struct BaseOwnerFunctional.Player",
          "name": "secondPlayer",
          "type": "tuple"
        },
        {
          "internalType": "enum BaseOwnerFunctional.Stage",
          "name": "stage",
          "type": "uint8"
        }
      ],
      "stateMutability": "view",
      "type": "function"
    },
    {
      "inputs": [
        {
          "internalType": "bytes32",
          "name": "role",
          "type": "bytes32"
        },
        {
          "internalType": "bytes32",
          "name": "adminRole",
          "type": "bytes32"
        }
      ],
      "name": "setRoleAdmin",
      "outputs": [],
      "stateMutability": "nonpayable",
      "type": "function"
    },
    {
      "inputs": [
        {
          "internalType": "bytes4",
          "name": "interfaceId",
          "type": "bytes4"
        }
      ],
      "name": "supportsInterface",
      "outputs": [
        {
          "internalType": "bool",
          "name": "",
          "type": "bool"
        }
      ],
      "stateMutability": "view",
      "type": "function"
    },
    {
      "inputs": [
        {
          "internalType": "uint256",
          "name": "roomId",
          "type": "uint256"
        },
        {
          "internalType": "bytes32",
          "name": "commitment",
          "type": "bytes32"
        }
      ],
      "name": "commit",
      "outputs": [],
      "stateMutability": "nonpayable",
      "type": "function"
    },
    {
      "inputs": [
        {
          "internalType": "uint256",
          "name": "roomId",
          "type": "uint256"
        },
        {
          "internalType": "enum BaseOwnerFunctional.Choice",
          "name": "choice",
          "type": "uint8"
        },
        {
          "internalType": "bytes32",
          "name": "key",
          "type": "bytes32"
        }
      ],
      "name": "reveal",
      "outputs": [],
      "stateMutability": "nonpayable",
      "type": "function"
    },
    {
      "inputs": [
        {
          "internalType": "uint256",
          "name": "roomId",
          "type": "uint256"
        }
      ],
      "name": "distribute",
      "outputs": [],
      "stateMutability": "nonpayable",
      "type": "function"
    },
    {
      "inputs": [
        {
          "internalType": "uint256",
          "name": "roomId",
          "type": "uint256"
        },
        {
          "internalType": "enum BaseOwnerFunctional.Stage",
          "name": "stage",
          "type": "uint8"
        }
      ],
      "name": "changeStage",
      "outputs": [],
      "stateMutability": "nonpayable",
      "type": "function"
    }
  ],
  "bytecode": "0x60806040523480156200001157600080fd5b50604051620042333803806200423383398181016040528101906200003791906200046f565b80620000966040516020016200004d90620004fc565b604051602081830303815290604052805190602001206040516020016200007490620004fc565b604051602081830303815290604052805190602001206200022060201b60201c565b620000f4604051602001620000ab9062000563565b60405160208183030381529060405280519060200120604051602001620000d290620004fc565b604051602081830303815290604052805190602001206200022060201b60201c565b620001526040516020016200010990620005ca565b60405160208183030381529060405280519060200120604051602001620001309062000563565b604051602081830303815290604052805190602001206200022060201b60201c565b620001996040516020016200016790620004fc565b604051602081830303815290604052805190602001206200018d6200028360201b60201c565b6200028b60201b60201c565b620001e0604051602001620001ae9062000563565b60405160208183030381529060405280519060200120620001d46200028360201b60201c565b6200028b60201b60201c565b62000218604051602001620001f590620005ca565b60405160208183030381529060405280519060200120826200028b60201b60201c565b5050620005e1565b600062000233836200037c60201b60201c565b905081600080858152602001908152602001600020600101819055508181847fbd79b86ffe0ab8e8776151514217cd7cacd52c909f66475c3af44e129f0b00ff60405160405180910390a4505050565b600033905090565b6200029d82826200039b60201b60201c565b6200037857600160008084815260200190815260200160002060000160008373ffffffffffffffffffffffffffffffffffffffff1673ffffffffffffffffffffffffffffffffffffffff16815260200190815260200160002060006101000a81548160ff0219169083151502179055506200031d6200028360201b60201c565b73ffffffffffffffffffffffffffffffffffffffff168173ffffffffffffffffffffffffffffffffffffffff16837f2f8788117e7eff1d82e926ec794901d17c78024a50270940304540a733656f0d60405160405180910390a45b5050565b6000806000838152602001908152602001600020600101549050919050565b600080600084815260200190815260200160002060000160008373ffffffffffffffffffffffffffffffffffffffff1673ffffffffffffffffffffffffffffffffffffffff16815260200190815260200160002060009054906101000a900460ff16905092915050565b600080fd5b600073ffffffffffffffffffffffffffffffffffffffff82169050919050565b600062000437826200040a565b9050919050565b62000449816200042a565b81146200045557600080fd5b50565b60008151905062000469816200043e565b92915050565b60006020828403121562000488576200048762000405565b5b6000620004988482850162000458565b91505092915050565b600081905092915050565b7f4f574e45525f524f4c4500000000000000000000000000000000000000000000600082015250565b6000620004e4600a83620004a1565b9150620004f182620004ac565b600a82019050919050565b60006200050982620004d5565b9150819050919050565b7f41444d494e5f524f4c4500000000000000000000000000000000000000000000600082015250565b60006200054b600a83620004a1565b9150620005588262000513565b600a82019050919050565b600062000570826200053c565b9150819050919050565b7f4449535452494255544f525f524f4c4500000000000000000000000000000000600082015250565b6000620005b2601083620004a1565b9150620005bf826200057a565b601082019050919050565b6000620005d782620005a3565b9150819050919050565b613c4280620005f16000396000f3fe608060405234801561001057600080fd5b50600436106101215760003560e01c806391d14854116100ad578063e58378bb11610071578063e58378bb14610319578063eadddb3c14610337578063f0bd87cc14610355578063f2f0387714610373578063f9a5918f1461038f57610121565b806391d14854146102775780639a42f3aa146102a7578063a217fddf146102c3578063d4b4f34c146102e1578063d547741f146102fd57610121565b80632f2ff15d116100f45780632f2ff15d146101d55780633495655a146101f157806336568abe1461022157806375b238fc1461023d57806391c05b0b1461025b57610121565b806301ffc9a7146101265780631bae0ac8146101565780631e4e009114610189578063248a9ca3146101a5575b600080fd5b610140600480360381019061013b9190612b92565b6103ab565b60405161014d9190612bda565b60405180910390f35b610170600480360381019061016b9190612c2b565b610425565b6040516101809493929190612df7565b60405180910390f35b6101a3600480360381019061019e9190612e6a565b610618565b005b6101bf60048036038101906101ba9190612eaa565b610655565b6040516101cc9190612ee6565b60405180910390f35b6101ef60048036038101906101ea9190612f2d565b610674565b005b61020b60048036038101906102069190612c2b565b610695565b604051610218919061304a565b60405180910390f35b61023b60048036038101906102369190612f2d565b6108d1565b005b610245610954565b6040516102529190612ee6565b60405180910390f35b61027560048036038101906102709190612c2b565b61097c565b005b610291600480360381019061028c9190612f2d565b611117565b60405161029e9190612bda565b60405180910390f35b6102c160048036038101906102bc919061308b565b611181565b005b6102cb61182d565b6040516102d89190612ee6565b60405180910390f35b6102fb60048036038101906102f69190613103565b611834565b005b61031760048036038101906103129190612f2d565b611966565b005b610321611987565b60405161032e9190612ee6565b60405180910390f35b61033f6119af565b60405161034c9190613143565b60405180910390f35b61035d6119e8565b60405161036a9190612ee6565b60405180910390f35b61038d6004803603810190610388919061315e565b611a10565b005b6103a960048036038101906103a4919061319e565b611ff3565b005b60007f7965db0b000000000000000000000000000000000000000000000000000000007bffffffffffffffffffffffffffffffffffffffffffffffffffffffff1916827bffffffffffffffffffffffffffffffffffffffffffffffffffffffff1916148061041e575061041d826123c9565b5b9050919050565b6002602052806000526040600020600091509050806000015490806001016040518060a00160405290816000820160009054906101000a900473ffffffffffffffffffffffffffffffffffffffff1673ffffffffffffffffffffffffffffffffffffffff1673ffffffffffffffffffffffffffffffffffffffff1681526020016000820160149054906101000a900460ff161515151581526020016000820160159054906101000a900460ff161515151581526020016000820160169054906101000a900460ff1660038111156104ff576104fe612cb7565b5b600381111561051157610510612cb7565b5b815260200160018201548152505090806003016040518060a00160405290816000820160009054906101000a900473ffffffffffffffffffffffffffffffffffffffff1673ffffffffffffffffffffffffffffffffffffffff1673ffffffffffffffffffffffffffffffffffffffff1681526020016000820160149054906101000a900460ff161515151581526020016000820160159054906101000a900460ff161515151581526020016000820160169054906101000a900460ff1660038111156105e0576105df612cb7565b5b60038111156105f2576105f1612cb7565b5b8152602001600182015481525050908060050160009054906101000a900460ff16905084565b60405160200161062790613235565b6040516020818303038152906040528051906020012061064681612433565b6106508383612447565b505050565b6000806000838152602001908152602001600020600101549050919050565b61067d82610655565b61068681612433565b61069083836124a2565b505050565b61069d612a91565b6002600083815260200190815260200160002060405180608001604052908160008201548152602001600182016040518060a00160405290816000820160009054906101000a900473ffffffffffffffffffffffffffffffffffffffff1673ffffffffffffffffffffffffffffffffffffffff1673ffffffffffffffffffffffffffffffffffffffff1681526020016000820160149054906101000a900460ff161515151581526020016000820160159054906101000a900460ff161515151581526020016000820160169054906101000a900460ff16600381111561078657610785612cb7565b5b600381111561079857610797612cb7565b5b81526020016001820154815250508152602001600382016040518060a00160405290816000820160009054906101000a900473ffffffffffffffffffffffffffffffffffffffff1673ffffffffffffffffffffffffffffffffffffffff1673ffffffffffffffffffffffffffffffffffffffff1681526020016000820160149054906101000a900460ff161515151581526020016000820160159054906101000a900460ff161515151581526020016000820160169054906101000a900460ff16600381111561086b5761086a612cb7565b5b600381111561087d5761087c612cb7565b5b815260200160018201548152505081526020016005820160009054906101000a900460ff1660028111156108b4576108b3612cb7565b5b60028111156108c6576108c5612cb7565b5b815250509050919050565b6108d9612582565b73ffffffffffffffffffffffffffffffffffffffff168173ffffffffffffffffffffffffffffffffffffffff1614610946576040517f08c379a000000000000000000000000000000000000000000000000000000000815260040161093d906132cd565b60405180910390fd5b610950828261258a565b5050565b60405160200161096390613339565b6040516020818303038152906040528051906020012081565b60405160200161098b9061339a565b604051602081830303815290604052805190602001206109aa81612433565b60006002600084815260200190815260200160002060405180608001604052908160008201548152602001600182016040518060a00160405290816000820160009054906101000a900473ffffffffffffffffffffffffffffffffffffffff1673ffffffffffffffffffffffffffffffffffffffff1673ffffffffffffffffffffffffffffffffffffffff1681526020016000820160149054906101000a900460ff161515151581526020016000820160159054906101000a900460ff161515151581526020016000820160169054906101000a900460ff166003811115610a9557610a94612cb7565b5b6003811115610aa757610aa6612cb7565b5b81526020016001820154815250508152602001600382016040518060a00160405290816000820160009054906101000a900473ffffffffffffffffffffffffffffffffffffffff1673ffffffffffffffffffffffffffffffffffffffff1673ffffffffffffffffffffffffffffffffffffffff1681526020016000820160149054906101000a900460ff161515151581526020016000820160159054906101000a900460ff161515151581526020016000820160169054906101000a900460ff166003811115610b7a57610b79612cb7565b5b6003811115610b8c57610b8b612cb7565b5b815260200160018201548152505081526020016005820160009054906101000a900460ff166002811115610bc357610bc2612cb7565b5b6002811115610bd557610bd4612cb7565b5b81525050905060008160200151905060008260400151905080606001516003811115610c0457610c03612cb7565b5b82606001516003811115610c1b57610c1a612cb7565b5b03610c5d577fafb0c2a937cb436c72c62c1b86dd4f7854b2204064a8c13b7b0290c281d219c06000604051610c5091906133be565b60405180910390a1611110565b60016003811115610c7157610c70612cb7565b5b82606001516003811115610c8857610c87612cb7565b5b03610dd95760026003811115610ca157610ca0612cb7565b5b81606001516003811115610cb857610cb7612cb7565b5b1480610ceb5750600380811115610cd257610cd1612cb7565b5b81606001516003811115610ce957610ce8612cb7565b5b145b610cf857610cf76133d9565b5b60026003811115610d0c57610d0b612cb7565b5b81606001516003811115610d2357610d22612cb7565b5b03610d68577fafb0c2a937cb436c72c62c1b86dd4f7854b2204064a8c13b7b0290c281d219c08160000151604051610d5b91906133be565b60405180910390a1610dd4565b600380811115610d7b57610d7a612cb7565b5b81606001516003811115610d9257610d91612cb7565b5b03610dd3577fafb0c2a937cb436c72c62c1b86dd4f7854b2204064a8c13b7b0290c281d219c08260000151604051610dca91906133be565b60405180910390a15b5b61110f565b600380811115610dec57610deb612cb7565b5b82606001516003811115610e0357610e02612cb7565b5b03610f565760026003811115610e1c57610e1b612cb7565b5b81606001516003811115610e3357610e32612cb7565b5b1480610e67575060016003811115610e4e57610e4d612cb7565b5b81606001516003811115610e6557610e64612cb7565b5b145b610e7457610e736133d9565b5b60016003811115610e8857610e87612cb7565b5b81606001516003811115610e9f57610e9e612cb7565b5b03610ee4577fafb0c2a937cb436c72c62c1b86dd4f7854b2204064a8c13b7b0290c281d219c08160000151604051610ed791906133be565b60405180910390a1610f51565b60026003811115610ef857610ef7612cb7565b5b81606001516003811115610f0f57610f0e612cb7565b5b03610f50577fafb0c2a937cb436c72c62c1b86dd4f7854b2204064a8c13b7b0290c281d219c08260000151604051610f4791906133be565b60405180910390a15b5b61110e565b60026003811115610f6a57610f69612cb7565b5b82606001516003811115610f8157610f80612cb7565b5b036110d25760016003811115610f9a57610f99612cb7565b5b81606001516003811115610fb157610fb0612cb7565b5b1480610fe45750600380811115610fcb57610fca612cb7565b5b81606001516003811115610fe257610fe1612cb7565b5b145b610ff157610ff06133d9565b5b60038081111561100457611003612cb7565b5b8160600151600381111561101b5761101a612cb7565b5b03611060577fafb0c2a937cb436c72c62c1b86dd4f7854b2204064a8c13b7b0290c281d219c0816000015160405161105391906133be565b60405180910390a16110cd565b6001600381111561107457611073612cb7565b5b8160600151600381111561108b5761108a612cb7565b5b036110cc577fafb0c2a937cb436c72c62c1b86dd4f7854b2204064a8c13b7b0290c281d219c082600001516040516110c391906133be565b60405180910390a15b5b61110d565b6040517f08c379a000000000000000000000000000000000000000000000000000000000815260040161110490613454565b60405180910390fd5b5b5b5b5050505050565b600080600084815260200190815260200160002060000160008373ffffffffffffffffffffffffffffffffffffffff1673ffffffffffffffffffffffffffffffffffffffff16815260200190815260200160002060009054906101000a900460ff16905092915050565b60006002600085815260200190815260200160002060405180608001604052908160008201548152602001600182016040518060a00160405290816000820160009054906101000a900473ffffffffffffffffffffffffffffffffffffffff1673ffffffffffffffffffffffffffffffffffffffff1673ffffffffffffffffffffffffffffffffffffffff1681526020016000820160149054906101000a900460ff161515151581526020016000820160159054906101000a900460ff161515151581526020016000820160169054906101000a900460ff16600381111561126c5761126b612cb7565b5b600381111561127e5761127d612cb7565b5b81526020016001820154815250508152602001600382016040518060a00160405290816000820160009054906101000a900473ffffffffffffffffffffffffffffffffffffffff1673ffffffffffffffffffffffffffffffffffffffff1673ffffffffffffffffffffffffffffffffffffffff1681526020016000820160149054906101000a900460ff161515151581526020016000820160159054906101000a900460ff161515151581526020016000820160169054906101000a900460ff16600381111561135157611350612cb7565b5b600381111561136357611362612cb7565b5b815260200160018201548152505081526020016005820160009054906101000a900460ff16600281111561139a57611399612cb7565b5b60028111156113ac576113ab612cb7565b5b815250509050600160028111156113c6576113c5612cb7565b5b816060015160028111156113dd576113dc612cb7565b5b1461141d576040517f08c379a0000000000000000000000000000000000000000000000000000000008152600401611414906134c0565b60405180910390fd5b3373ffffffffffffffffffffffffffffffffffffffff1681602001516000015173ffffffffffffffffffffffffffffffffffffffff16148061149257503373ffffffffffffffffffffffffffffffffffffffff1681604001516000015173ffffffffffffffffffffffffffffffffffffffff16145b6114d1576040517f08c379a00000000000000000000000000000000000000000000000000000000081526004016114c89061352c565b60405180910390fd5b600160038111156114e5576114e4612cb7565b5b8360038111156114f8576114f7612cb7565b5b148061152857506002600381111561151357611512612cb7565b5b83600381111561152657611525612cb7565b5b145b80611556575060038081111561154157611540612cb7565b5b83600381111561155457611553612cb7565b5b145b611595576040517f08c379a000000000000000000000000000000000000000000000000000000000815260040161158c90613598565b60405180910390fd5b3373ffffffffffffffffffffffffffffffffffffffff1681602001516000015173ffffffffffffffffffffffffffffffffffffffff16036115ec576115df8160200151848461266b565b8160200181905250611604565b6115fb8160400151848461266b565b81604001819052505b80600260008681526020019081526020016000206000820151816000015560208201518160010160008201518160000160006101000a81548173ffffffffffffffffffffffffffffffffffffffff021916908373ffffffffffffffffffffffffffffffffffffffff16021790555060208201518160000160146101000a81548160ff02191690831515021790555060408201518160000160156101000a81548160ff02191690831515021790555060608201518160000160166101000a81548160ff021916908360038111156116dd576116dc612cb7565b5b021790555060808201518160010155505060408201518160030160008201518160000160006101000a81548173ffffffffffffffffffffffffffffffffffffffff021916908373ffffffffffffffffffffffffffffffffffffffff16021790555060208201518160000160146101000a81548160ff02191690831515021790555060408201518160000160156101000a81548160ff02191690831515021790555060608201518160000160166101000a81548160ff021916908360038111156117a9576117a8612cb7565b5b021790555060808201518160010155505060608201518160050160006101000a81548160ff021916908360028111156117e5576117e4612cb7565b5b0217905550905050837fc68416cfb4fec2fce79abcfa27c33ba8c9a63168b3b70d1cd3449b4a973465a8338560405161181f9291906135c7565b60405180910390a250505050565b6000801b81565b6040516020016118439061339a565b6040516020818303038152906040528051906020012061186281612433565b81600281111561187557611874612cb7565b5b6002600085815260200190815260200160002060050160009054906101000a900460ff1660028111156118ab576118aa612cb7565b5b036118eb576040517f08c379a00000000000000000000000000000000000000000000000000000000081526004016118e29061363c565b60405180910390fd5b816002600085815260200190815260200160002060050160006101000a81548160ff0219169083600281111561192457611923612cb7565b5b0217905550827fdf37221aaffab5daec18329c74e9de71f26727289dfefd6e144987965be79ef383604051611959919061365c565b60405180910390a2505050565b61196f82610655565b61197881612433565b611982838361258a565b505050565b60405160200161199690613235565b6040516020818303038152906040528051906020012081565b60006040516020016119c090613235565b604051602081830303815290604052805190602001206119df81612433565b60015491505090565b6040516020016119f79061339a565b6040516020818303038152906040528051906020012081565b60006002600084815260200190815260200160002060405180608001604052908160008201548152602001600182016040518060a00160405290816000820160009054906101000a900473ffffffffffffffffffffffffffffffffffffffff1673ffffffffffffffffffffffffffffffffffffffff1673ffffffffffffffffffffffffffffffffffffffff1681526020016000820160149054906101000a900460ff161515151581526020016000820160159054906101000a900460ff161515151581526020016000820160169054906101000a900460ff166003811115611afb57611afa612cb7565b5b6003811115611b0d57611b0c612cb7565b5b81526020016001820154815250508152602001600382016040518060a00160405290816000820160009054906101000a900473ffffffffffffffffffffffffffffffffffffffff1673ffffffffffffffffffffffffffffffffffffffff1673ffffffffffffffffffffffffffffffffffffffff1681526020016000820160149054906101000a900460ff161515151581526020016000820160159054906101000a900460ff161515151581526020016000820160169054906101000a900460ff166003811115611be057611bdf612cb7565b5b6003811115611bf257611bf1612cb7565b5b815260200160018201548152505081526020016005820160009054906101000a900460ff166002811115611c2957611c28612cb7565b5b6002811115611c3b57611c3a612cb7565b5b8152505090503373ffffffffffffffffffffffffffffffffffffffff1681602001516000015173ffffffffffffffffffffffffffffffffffffffff161480611cb657503373ffffffffffffffffffffffffffffffffffffffff1681604001516000015173ffffffffffffffffffffffffffffffffffffffff16145b611cf5576040517f08c379a0000000000000000000000000000000000000000000000000000000008152600401611cec9061352c565b60405180910390fd5b60006002811115611d0957611d08612cb7565b5b81606001516002811115611d2057611d1f612cb7565b5b14611d60576040517f08c379a0000000000000000000000000000000000000000000000000000000008152600401611d57906134c0565b60405180910390fd5b3373ffffffffffffffffffffffffffffffffffffffff1681602001516000015173ffffffffffffffffffffffffffffffffffffffff1603611db657611da9816020015183612747565b8160200181905250611dcd565b611dc4816040015183612747565b81604001819052505b80600260008581526020019081526020016000206000820151816000015560208201518160010160008201518160000160006101000a81548173ffffffffffffffffffffffffffffffffffffffff021916908373ffffffffffffffffffffffffffffffffffffffff16021790555060208201518160000160146101000a81548160ff02191690831515021790555060408201518160000160156101000a81548160ff02191690831515021790555060608201518160000160166101000a81548160ff02191690836003811115611ea657611ea5612cb7565b5b021790555060808201518160010155505060408201518160030160008201518160000160006101000a81548173ffffffffffffffffffffffffffffffffffffffff021916908373ffffffffffffffffffffffffffffffffffffffff16021790555060208201518160000160146101000a81548160ff02191690831515021790555060408201518160000160156101000a81548160ff02191690831515021790555060608201518160000160166101000a81548160ff02191690836003811115611f7257611f71612cb7565b5b021790555060808201518160010155505060608201518160050160006101000a81548160ff02191690836002811115611fae57611fad612cb7565b5b0217905550905050827f775cbcccd7fe28145ecb9139488663063065c5a215ba96419500f1bb1217661e33604051611fe691906133be565b60405180910390a2505050565b60405160200161200290613235565b6040516020818303038152906040528051906020012061202181612433565b8173ffffffffffffffffffffffffffffffffffffffff168373ffffffffffffffffffffffffffffffffffffffff160361208f576040517f08c379a0000000000000000000000000000000000000000000000000000000008152600401612086906136c3565b60405180910390fd5b60006040518060a001604052808573ffffffffffffffffffffffffffffffffffffffff168152602001600015158152602001600015158152602001600060038111156120de576120dd612cb7565b5b81526020016000801b815250905060006040518060a001604052808573ffffffffffffffffffffffffffffffffffffffff1681526020016000151581526020016000151581526020016000600381111561213b5761213a612cb7565b5b81526020016000801b8152509050604051806080016040528060015481526020018381526020018281526020016000600281111561217c5761217b612cb7565b5b8152506002600060015481526020019081526020016000206000820151816000015560208201518160010160008201518160000160006101000a81548173ffffffffffffffffffffffffffffffffffffffff021916908373ffffffffffffffffffffffffffffffffffffffff16021790555060208201518160000160146101000a81548160ff02191690831515021790555060408201518160000160156101000a81548160ff02191690831515021790555060608201518160000160166101000a81548160ff0219169083600381111561225957612258612cb7565b5b021790555060808201518160010155505060408201518160030160008201518160000160006101000a81548173ffffffffffffffffffffffffffffffffffffffff021916908373ffffffffffffffffffffffffffffffffffffffff16021790555060208201518160000160146101000a81548160ff02191690831515021790555060408201518160000160156101000a81548160ff02191690831515021790555060608201518160000160166101000a81548160ff0219169083600381111561232557612324612cb7565b5b021790555060808201518160010155505060608201518160050160006101000a81548160ff0219169083600281111561236157612360612cb7565b5b02179055509050507fcd359a5a81a67a8cba1fa58a9d77fcf61bd58c6ebc6703100aa52cceefffa08d600154868643426040516123a29594939291906136e3565b60405180910390a1600160008154809291906123bd90613765565b91905055505050505050565b60007f01ffc9a7000000000000000000000000000000000000000000000000000000007bffffffffffffffffffffffffffffffffffffffffffffffffffffffff1916827bffffffffffffffffffffffffffffffffffffffffffffffffffffffff1916149050919050565b6124448161243f612582565b6127b8565b50565b600061245283610655565b905081600080858152602001908152602001600020600101819055508181847fbd79b86ffe0ab8e8776151514217cd7cacd52c909f66475c3af44e129f0b00ff60405160405180910390a4505050565b6124ac8282611117565b61257e57600160008084815260200190815260200160002060000160008373ffffffffffffffffffffffffffffffffffffffff1673ffffffffffffffffffffffffffffffffffffffff16815260200190815260200160002060006101000a81548160ff021916908315150217905550612523612582565b73ffffffffffffffffffffffffffffffffffffffff168173ffffffffffffffffffffffffffffffffffffffff16837f2f8788117e7eff1d82e926ec794901d17c78024a50270940304540a733656f0d60405160405180910390a45b5050565b600033905090565b6125948282611117565b1561266757600080600084815260200190815260200160002060000160008373ffffffffffffffffffffffffffffffffffffffff1673ffffffffffffffffffffffffffffffffffffffff16815260200190815260200160002060006101000a81548160ff02191690831515021790555061260c612582565b73ffffffffffffffffffffffffffffffffffffffff168173ffffffffffffffffffffffffffffffffffffffff16837ff6391f5c32d9c69d2a47ea670b442974b53935d1edc7fd64eb21e047a839171b60405160405180910390a45b5050565b612673612ad7565b8360400151156126b8576040517f08c379a00000000000000000000000000000000000000000000000000000000081526004016126af906137f9565b60405180910390fd5b8360800151846000015184846040516020016126d693929190613819565b604051602081830303815290604052805190602001201461272c576040517f08c379a00000000000000000000000000000000000000000000000000000000081526004016127239061389c565b60405180910390fd5b60018460400190151590811515815250508390509392505050565b61274f612ad7565b826020015115612794576040517f08c379a000000000000000000000000000000000000000000000000000000000815260040161278b906137f9565b60405180910390fd5b81836080018181525050600183602001901515908115158152505082905092915050565b6127c28282611117565b612851576127e78173ffffffffffffffffffffffffffffffffffffffff166014612855565b6127f58360001c6020612855565b6040516020016128069291906139c3565b6040516020818303038152906040526040517f08c379a00000000000000000000000000000000000000000000000000000000081526004016128489190613a47565b60405180910390fd5b5050565b6060600060028360026128689190613a69565b6128729190613ac3565b67ffffffffffffffff81111561288b5761288a613b19565b5b6040519080825280601f01601f1916602001820160405280156128bd5781602001600182028036833780820191505090505b5090507f3000000000000000000000000000000000000000000000000000000000000000816000815181106128f5576128f4613b48565b5b60200101907effffffffffffffffffffffffffffffffffffffffffffffffffffffffffffff1916908160001a9053507f78000000000000000000000000000000000000000000000000000000000000008160018151811061295957612958613b48565b5b60200101907effffffffffffffffffffffffffffffffffffffffffffffffffffffffffffff1916908160001a905350600060018460026129999190613a69565b6129a39190613ac3565b90505b6001811115612a43577f3031323334353637383961626364656600000000000000000000000000000000600f8616601081106129e5576129e4613b48565b5b1a60f81b8282815181106129fc576129fb613b48565b5b60200101907effffffffffffffffffffffffffffffffffffffffffffffffffffffffffffff1916908160001a905350600485901c945080612a3c90613b77565b90506129a6565b5060008414612a87576040517f08c379a0000000000000000000000000000000000000000000000000000000008152600401612a7e90613bec565b60405180910390fd5b8091505092915050565b604051806080016040528060008152602001612aab612ad7565b8152602001612ab8612ad7565b815260200160006002811115612ad157612ad0612cb7565b5b81525090565b6040518060a00160405280600073ffffffffffffffffffffffffffffffffffffffff16815260200160001515815260200160001515815260200160006003811115612b2557612b24612cb7565b5b8152602001600080191681525090565b600080fd5b60007fffffffff0000000000000000000000000000000000000000000000000000000082169050919050565b612b6f81612b3a565b8114612b7a57600080fd5b50565b600081359050612b8c81612b66565b92915050565b600060208284031215612ba857612ba7612b35565b5b6000612bb684828501612b7d565b91505092915050565b60008115159050919050565b612bd481612bbf565b82525050565b6000602082019050612bef6000830184612bcb565b92915050565b6000819050919050565b612c0881612bf5565b8114612c1357600080fd5b50565b600081359050612c2581612bff565b92915050565b600060208284031215612c4157612c40612b35565b5b6000612c4f84828501612c16565b91505092915050565b612c6181612bf5565b82525050565b600073ffffffffffffffffffffffffffffffffffffffff82169050919050565b6000612c9282612c67565b9050919050565b612ca281612c87565b82525050565b612cb181612bbf565b82525050565b7f4e487b7100000000000000000000000000000000000000000000000000000000600052602160045260246000fd5b60048110612cf757612cf6612cb7565b5b50565b6000819050612d0882612ce6565b919050565b6000612d1882612cfa565b9050919050565b612d2881612d0d565b82525050565b6000819050919050565b612d4181612d2e565b82525050565b60a082016000820151612d5d6000850182612c99565b506020820151612d706020850182612ca8565b506040820151612d836040850182612ca8565b506060820151612d966060850182612d1f565b506080820151612da96080850182612d38565b50505050565b60038110612dc057612dbf612cb7565b5b50565b6000819050612dd182612daf565b919050565b6000612de182612dc3565b9050919050565b612df181612dd6565b82525050565b600061018082019050612e0d6000830187612c58565b612e1a6020830186612d47565b612e2760c0830185612d47565b612e35610160830184612de8565b95945050505050565b612e4781612d2e565b8114612e5257600080fd5b50565b600081359050612e6481612e3e565b92915050565b60008060408385031215612e8157612e80612b35565b5b6000612e8f85828601612e55565b9250506020612ea085828601612e55565b9150509250929050565b600060208284031215612ec057612ebf612b35565b5b6000612ece84828501612e55565b91505092915050565b612ee081612d2e565b82525050565b6000602082019050612efb6000830184612ed7565b92915050565b612f0a81612c87565b8114612f1557600080fd5b50565b600081359050612f2781612f01565b92915050565b60008060408385031215612f4457612f43612b35565b5b6000612f5285828601612e55565b9250506020612f6385828601612f18565b9150509250929050565b612f7681612bf5565b82525050565b60a082016000820151612f926000850182612c99565b506020820151612fa56020850182612ca8565b506040820151612fb86040850182612ca8565b506060820151612fcb6060850182612d1f565b506080820151612fde6080850182612d38565b50505050565b612fed81612dd6565b82525050565b6101808201600082015161300a6000850182612f6d565b50602082015161301d6020850182612f7c565b50604082015161303060c0850182612f7c565b506060820151613044610160850182612fe4565b50505050565b6000610180820190506130606000830184612ff3565b92915050565b6004811061307357600080fd5b50565b60008135905061308581613066565b92915050565b6000806000606084860312156130a4576130a3612b35565b5b60006130b286828701612c16565b93505060206130c386828701613076565b92505060406130d486828701612e55565b9150509250925092565b600381106130eb57600080fd5b50565b6000813590506130fd816130de565b92915050565b6000806040838503121561311a57613119612b35565b5b600061312885828601612c16565b9250506020613139858286016130ee565b9150509250929050565b60006020820190506131586000830184612c58565b92915050565b6000806040838503121561317557613174612b35565b5b600061318385828601612c16565b925050602061319485828601612e55565b9150509250929050565b600080604083850312156131b5576131b4612b35565b5b60006131c385828601612f18565b92505060206131d485828601612f18565b9150509250929050565b600081905092915050565b7f4f574e45525f524f4c4500000000000000000000000000000000000000000000600082015250565b600061321f600a836131de565b915061322a826131e9565b600a82019050919050565b600061324082613212565b9150819050919050565b600082825260208201905092915050565b7f416363657373436f6e74726f6c3a2063616e206f6e6c792072656e6f756e636560008201527f20726f6c657320666f722073656c660000000000000000000000000000000000602082015250565b60006132b7602f8361324a565b91506132c28261325b565b604082019050919050565b600060208201905081810360008301526132e6816132aa565b9050919050565b7f41444d494e5f524f4c4500000000000000000000000000000000000000000000600082015250565b6000613323600a836131de565b915061332e826132ed565b600a82019050919050565b600061334482613316565b9150819050919050565b7f4449535452494255544f525f524f4c4500000000000000000000000000000000600082015250565b60006133846010836131de565b915061338f8261334e565b601082019050919050565b60006133a582613377565b9150819050919050565b6133b881612c87565b82525050565b60006020820190506133d360008301846133af565b92915050565b7f4e487b7100000000000000000000000000000000000000000000000000000000600052600160045260246000fd5b7f43686f69636520696e63636f7265637421000000000000000000000000000000600082015250565b600061343e60118361324a565b915061344982613408565b602082019050919050565b6000602082019050818103600083015261346d81613431565b9050919050565b7f53746167653a2077726f6e672073746174757321000000000000000000000000600082015250565b60006134aa60148361324a565b91506134b582613474565b602082019050919050565b600060208201905081810360008301526134d98161349d565b9050919050565b7f506c617965723a206973206e6f7420696e20726f6f6d21000000000000000000600082015250565b600061351660178361324a565b9150613521826134e0565b602082019050919050565b6000602082019050818103600083015261354581613509565b9050919050565b7f43686f6963653a20696e76616c69642063686f69636521000000000000000000600082015250565b600061358260178361324a565b915061358d8261354c565b602082019050919050565b600060208201905081810360008301526135b181613575565b9050919050565b6135c181612d0d565b82525050565b60006040820190506135dc60008301856133af565b6135e960208301846135b8565b9392505050565b7f496e636f72726563742073746167650000000000000000000000000000000000600082015250565b6000613626600f8361324a565b9150613631826135f0565b602082019050919050565b6000602082019050818103600083015261365581613619565b9050919050565b60006020820190506136716000830184612de8565b92915050565b7f416464726573733a2073616d652076616c756521000000000000000000000000600082015250565b60006136ad60148361324a565b91506136b882613677565b602082019050919050565b600060208201905081810360008301526136dc816136a0565b9050919050565b600060a0820190506136f86000830188612c58565b61370560208301876133af565b61371260408301866133af565b61371f6060830185612c58565b61372c6080830184612c58565b9695505050505050565b7f4e487b7100000000000000000000000000000000000000000000000000000000600052601160045260246000fd5b600061377082612bf5565b91507fffffffffffffffffffffffffffffffffffffffffffffffffffffffffffffffff82036137a2576137a1613736565b5b600182019050919050565b7f506c617965723a20616c726561647920636f6d6d697465642100000000000000600082015250565b60006137e360198361324a565b91506137ee826137ad565b602082019050919050565b60006020820190508181036000830152613812816137d6565b9050919050565b600060608201905061382e60008301866133af565b61383b60208301856135b8565b6138486040830184612ed7565b949350505050565b7f436f6d6d69746d656e743a20696e76616c696420686173682100000000000000600082015250565b600061388660198361324a565b915061389182613850565b602082019050919050565b600060208201905081810360008301526138b581613879565b9050919050565b7f416363657373436f6e74726f6c3a206163636f756e7420000000000000000000600082015250565b60006138f26017836131de565b91506138fd826138bc565b601782019050919050565b600081519050919050565b60005b83811015613931578082015181840152602081019050613916565b83811115613940576000848401525b50505050565b600061395182613908565b61395b81856131de565b935061396b818560208601613913565b80840191505092915050565b7f206973206d697373696e6720726f6c6520000000000000000000000000000000600082015250565b60006139ad6011836131de565b91506139b882613977565b601182019050919050565b60006139ce826138e5565b91506139da8285613946565b91506139e5826139a0565b91506139f18284613946565b91508190509392505050565b6000601f19601f8301169050919050565b6000613a1982613908565b613a23818561324a565b9350613a33818560208601613913565b613a3c816139fd565b840191505092915050565b60006020820190508181036000830152613a618184613a0e565b905092915050565b6000613a7482612bf5565b9150613a7f83612bf5565b9250817fffffffffffffffffffffffffffffffffffffffffffffffffffffffffffffffff0483118215151615613ab857613ab7613736565b5b828202905092915050565b6000613ace82612bf5565b9150613ad983612bf5565b9250827fffffffffffffffffffffffffffffffffffffffffffffffffffffffffffffffff03821115613b0e57613b0d613736565b5b828201905092915050565b7f4e487b7100000000000000000000000000000000000000000000000000000000600052604160045260246000fd5b7f4e487b7100000000000000000000000000000000000000000000000000000000600052603260045260246000fd5b6000613b8282612bf5565b915060008203613b9557613b94613736565b5b600182039050919050565b7f537472696e67733a20686578206c656e67746820696e73756666696369656e74600082015250565b6000613bd660208361324a565b9150613be182613ba0565b602082019050919050565b60006020820190508181036000830152613c0581613bc9565b905091905056fea2646970667358221220d7f9f24ba18cffe6ac062dedb7eaa509af130632c549d19ab8c99a118b53ae8d64736f6c634300080e0033",
  "immutableReferences": {},
  "source": "//SPDX-License-Identifier: Unlicense\r\npragma solidity ^0.8.0;\r\n\r\nimport \"./BaseOwnerFunctional.sol\";\r\n\r\nimport \"hardhat/console.sol\";   \r\n\r\n\r\n//Commit Reveal Schema \r\ncontract RockPaperScissors is BaseOwnerFunctional{\r\n\r\n    event Commit(uint indexed id, address player);\r\n    event Reveal(uint indexed id, address player, Choice choice);\r\n    event Distributed(uint indexed id, Stage stage);\r\n    event StageChanged(uint indexed id, Stage stage);\r\n    event GameResult(address winner);\r\n\r\n    // bytes public encode; \r\n    // bytes32 public keccak;\r\n\r\n    constructor(address distributor) BaseOwnerFunctional(distributor) {}\r\n\r\n\r\n    function commit(uint roomId, bytes32 commitment) public {\r\n        Room memory room = rooms[roomId];\r\n        \r\n        require(\r\n            room.firstPlayer.playerAddress == msg.sender || room.secondPlayer.playerAddress == msg.sender,\r\n            \"Player: is not in room!\"\r\n        );\r\n        require(room.stage == Stage.Commit, \"Stage: wrong status!\");\r\n\r\n        // Only run during commit stages\r\n        //         if \r\n        // Player memory player;\r\n        if(room.firstPlayer.playerAddress == msg.sender) {\r\n            room.firstPlayer = _setCommitment(room.firstPlayer, commitment);\r\n        } else {\r\n            room.secondPlayer = _setCommitment(room.secondPlayer, commitment);\r\n        }\r\n\r\n        rooms[roomId] = room;\r\n        emit Commit(roomId, msg.sender);\r\n    }\r\n\r\n    \r\n    function reveal(uint roomId, Choice choice, bytes32 key) public {\r\n        Room memory room = rooms[roomId];\r\n\r\n        require(room.stage == Stage.Reveal, \"Stage: wrong status!\");\r\n        require(\r\n            room.firstPlayer.playerAddress == msg.sender || room.secondPlayer.playerAddress == msg.sender,\r\n            \"Player: is not in room!\"\r\n        );\r\n        require(\r\n            choice == Choice.Rock || choice == Choice.Paper || choice == Choice.Scissors, \r\n            \"Choice: invalid choice!\"\r\n        );\r\n\r\n        if(room.firstPlayer.playerAddress == msg.sender) {\r\n            room.firstPlayer = _setReveal(room.firstPlayer, choice, key);\r\n        } else {\r\n            room.secondPlayer = _setReveal(room.secondPlayer, choice, key);\r\n        }\r\n\r\n        rooms[roomId] = room;\r\n        emit Reveal(roomId, msg.sender, choice);\r\n    }\r\n\r\n\r\n    function distribute(uint roomId) external onlyRole(DISTRIBUTOR_ROLE){\r\n        Room memory room = rooms[roomId];\r\n\r\n        Player memory firstPlayer = room.firstPlayer;\r\n        Player memory secondPlayer = room.secondPlayer;\r\n\r\n        if(firstPlayer.choice == secondPlayer.choice) {\r\n            emit GameResult(address(0));\r\n        } \r\n        else if(firstPlayer.choice == Choice.Rock) {            \r\n            assert(secondPlayer.choice == Choice.Paper || secondPlayer.choice == Choice.Scissors);\r\n            if(secondPlayer.choice == Choice.Paper) {\r\n                // Rock loses to paper\r\n                emit GameResult(secondPlayer.playerAddress);\r\n            }\r\n            else if(secondPlayer.choice == Choice.Scissors) {\r\n                // Rock beats scissors\r\n                emit GameResult(firstPlayer.playerAddress);\r\n            }\r\n        }\r\n        else if(firstPlayer.choice == Choice.Scissors) {\r\n            assert(secondPlayer.choice == Choice.Paper || secondPlayer.choice == Choice.Rock);\r\n            if(secondPlayer.choice == Choice.Rock) {\r\n                // Scissors lose to rock\r\n                emit GameResult(secondPlayer.playerAddress);\r\n            }\r\n            else if(secondPlayer.choice == Choice.Paper) {\r\n                // Scissors beats paper\r\n                emit GameResult(firstPlayer.playerAddress);\r\n            }\r\n        }\r\n        else if(firstPlayer.choice == Choice.Paper) {\r\n            assert(secondPlayer.choice == Choice.Rock || secondPlayer.choice == Choice.Scissors);\r\n            if(secondPlayer.choice == Choice.Scissors) {\r\n                // Paper loses to scissors\r\n                emit GameResult(secondPlayer.playerAddress);\r\n            }\r\n            else if(secondPlayer.choice == Choice.Rock) {\r\n                // Paper beats rock\r\n                emit GameResult(firstPlayer.playerAddress);\r\n            }\r\n        } else revert(\"Choice inccorect!\");\r\n    }\r\n\r\n    function changeStage(uint roomId, Stage stage) external onlyRole(DISTRIBUTOR_ROLE) {\r\n        if(rooms[roomId].stage == stage) {\r\n            revert(\"Incorrect stage\");\r\n        }\r\n        rooms[roomId].stage = stage;\r\n        emit StageChanged(roomId, stage);\r\n    }\r\n\r\n    //       setCommitment\r\n    function _setCommitment(Player memory _player, bytes32 _commitment) private pure returns(Player memory) {\r\n        require(!_player.commited, \"Player: already commited!\");\r\n        _player.commitment = _commitment;\r\n        _player.commited = true;\r\n        return _player;\r\n    }\r\n\r\n    //       setReveal\r\n    function _setReveal(Player memory _player, Choice _choice, bytes32 _key) private pure returns(Player memory) {\r\n        require(!_player.revealed, \"Player: already commited!\");\r\n        require(\r\n            keccak256(abi.encode(_player.playerAddress, _choice, _key)) == _player.commitment, \r\n            \"Commitment: invalid hash!\"\r\n        );\r\n        _player.revealed = true;\r\n        return _player;\r\n    }\r\n\r\n    // function convertStringToBytes32(string memory source) external pure returns (bytes32 result) {\r\n    //     bytes memory tempEmptyStringTest = bytes(source);\r\n    //     if (tempEmptyStringTest.length == 0) {\r\n    //         return 0x0;\r\n    //     }\r\n\r\n    //     assembly {\r\n    //         result := mload(add(source, 32))\r\n    //     }\r\n    // }\r\n\r\n    // function testHash(bytes32 _blindingFactor) external view returns(bytes memory encode, bytes32 keccak) { \r\n    //     encode = abi.encode(msg.sender, Choice.Rock, _blindingFactor);\r\n    //     keccak = keccak256(encode);\r\n    // }\r\n}",
  "sourcePath": "C:\\Users\\vania\\Documents\\GitHub\\rock-paper-scissors-solidity\\blockchain\\contracts\\RockPaperScissors.sol",
  "compiler": {
    "name": "solc",
    "version": "0.8.14+commit.80d49f37.Emscripten.clang"
  },
  "schemaVersion": "3.4.7",
  "updatedAt": "2022-07-07T13:20:31.457Z",
  "devdoc": {
    "kind": "dev",
    "methods": {
      "getRoleAdmin(bytes32)": {
        "details": "Returns the admin role that controls `role`. See {grantRole} and {revokeRole}. To change a role's admin, use {_setRoleAdmin}."
      },
      "grantRole(bytes32,address)": {
        "details": "Grants `role` to `account`. If `account` had not been already granted `role`, emits a {RoleGranted} event. Requirements: - the caller must have ``role``'s admin role."
      },
      "hasRole(bytes32,address)": {
        "details": "Returns `true` if `account` has been granted `role`."
      },
      "renounceRole(bytes32,address)": {
        "details": "Revokes `role` from the calling account. Roles are often managed via {grantRole} and {revokeRole}: this function's purpose is to provide a mechanism for accounts to lose their privileges if they are compromised (such as when a trusted device is misplaced). If the calling account had been revoked `role`, emits a {RoleRevoked} event. Requirements: - the caller must be `account`."
      },
      "revokeRole(bytes32,address)": {
        "details": "Revokes `role` from `account`. If `account` had been granted `role`, emits a {RoleRevoked} event. Requirements: - the caller must have ``role``'s admin role."
      },
      "setRoleAdmin(bytes32,bytes32)": {
        "details": "Sets `adminRole` as ``role``'s admin role. Emits a {RoleAdminChanged} event."
      },
      "supportsInterface(bytes4)": {
        "details": "See {IERC165-supportsInterface}."
      }
    },
    "version": 1
  },
  "userdoc": {
    "kind": "user",
    "methods": {},
    "version": 1
  }
}