{
  "_format": "hh-sol-artifact-1",
  "contractName": "GameV2",
  "sourceName": "contracts/v2/GameV2.sol",
  "abi": [
    {
      "inputs": [
        {
          "internalType": "address",
          "name": "_distributor",
          "type": "address"
        }
      ],
      "stateMutability": "nonpayable",
      "type": "constructor"
    },
    {
      "inputs": [],
      "name": "AlreadyCommited",
      "type": "error"
    },
    {
      "inputs": [],
      "name": "AlreadyRevealed",
      "type": "error"
    },
    {
      "inputs": [],
      "name": "InvalidHash",
      "type": "error"
    },
    {
      "inputs": [],
      "name": "PlayerNotExist",
      "type": "error"
    },
    {
      "inputs": [],
      "name": "RoomNotExist",
      "type": "error"
    },
    {
      "inputs": [],
      "name": "WrongChoice",
      "type": "error"
    },
    {
      "inputs": [],
      "name": "WrongStage",
      "type": "error"
    },
    {
      "anonymous": false,
      "inputs": [
        {
          "indexed": true,
          "internalType": "uint256",
          "name": "roomId",
          "type": "uint256"
        },
        {
          "indexed": true,
          "internalType": "address",
          "name": "player",
          "type": "address"
        }
      ],
      "name": "Commited",
      "type": "event"
    },
    {
      "anonymous": false,
      "inputs": [
        {
          "indexed": true,
          "internalType": "uint256",
          "name": "roomId",
          "type": "uint256"
        },
        {
          "indexed": false,
          "internalType": "enum IGameV2.Stage",
          "name": "stage",
          "type": "uint8"
        }
      ],
      "name": "Distributed",
      "type": "event"
    },
    {
      "anonymous": false,
      "inputs": [
        {
          "indexed": true,
          "internalType": "uint256",
          "name": "roomId",
          "type": "uint256"
        },
        {
          "indexed": false,
          "internalType": "address",
          "name": "winner",
          "type": "address"
        }
      ],
      "name": "GameResult",
      "type": "event"
    },
    {
      "anonymous": false,
      "inputs": [
        {
          "indexed": true,
          "internalType": "uint256",
          "name": "roomId",
          "type": "uint256"
        },
        {
          "indexed": true,
          "internalType": "address",
          "name": "player",
          "type": "address"
        },
        {
          "indexed": false,
          "internalType": "enum IGameV2.Choice",
          "name": "choice",
          "type": "uint8"
        }
      ],
      "name": "Revealed",
      "type": "event"
    },
    {
      "anonymous": false,
      "inputs": [
        {
          "indexed": true,
          "internalType": "bytes32",
          "name": "role",
          "type": "bytes32"
        },
        {
          "indexed": true,
          "internalType": "bytes32",
          "name": "previousAdminRole",
          "type": "bytes32"
        },
        {
          "indexed": true,
          "internalType": "bytes32",
          "name": "newAdminRole",
          "type": "bytes32"
        }
      ],
      "name": "RoleAdminChanged",
      "type": "event"
    },
    {
      "anonymous": false,
      "inputs": [
        {
          "indexed": true,
          "internalType": "bytes32",
          "name": "role",
          "type": "bytes32"
        },
        {
          "indexed": true,
          "internalType": "address",
          "name": "account",
          "type": "address"
        },
        {
          "indexed": true,
          "internalType": "address",
          "name": "sender",
          "type": "address"
        }
      ],
      "name": "RoleGranted",
      "type": "event"
    },
    {
      "anonymous": false,
      "inputs": [
        {
          "indexed": true,
          "internalType": "bytes32",
          "name": "role",
          "type": "bytes32"
        },
        {
          "indexed": true,
          "internalType": "address",
          "name": "account",
          "type": "address"
        },
        {
          "indexed": true,
          "internalType": "address",
          "name": "sender",
          "type": "address"
        }
      ],
      "name": "RoleRevoked",
      "type": "event"
    },
    {
      "anonymous": false,
      "inputs": [
        {
          "indexed": true,
          "internalType": "address",
          "name": "player0",
          "type": "address"
        },
        {
          "indexed": true,
          "internalType": "address",
          "name": "player1",
          "type": "address"
        },
        {
          "indexed": false,
          "internalType": "uint256",
          "name": "roomId",
          "type": "uint256"
        }
      ],
      "name": "RoomCreated",
      "type": "event"
    },
    {
      "anonymous": false,
      "inputs": [
        {
          "indexed": true,
          "internalType": "uint256",
          "name": "roomId",
          "type": "uint256"
        },
        {
          "indexed": false,
          "internalType": "enum IGameV2.Stage",
          "name": "stage",
          "type": "uint8"
        }
      ],
      "name": "StageChanged",
      "type": "event"
    },
    {
      "inputs": [],
      "name": "DEFAULT_ADMIN_ROLE",
      "outputs": [
        {
          "internalType": "bytes32",
          "name": "",
          "type": "bytes32"
        }
      ],
      "stateMutability": "view",
      "type": "function"
    },
    {
      "inputs": [],
      "name": "DISTRIBUTOR_ROLE",
      "outputs": [
        {
          "internalType": "bytes32",
          "name": "",
          "type": "bytes32"
        }
      ],
      "stateMutability": "view",
      "type": "function"
    },
    {
      "inputs": [],
      "name": "OWNER_ROLE",
      "outputs": [
        {
          "internalType": "bytes32",
          "name": "",
          "type": "bytes32"
        }
      ],
      "stateMutability": "view",
      "type": "function"
    },
    {
      "inputs": [
        {
          "internalType": "uint256",
          "name": "roomId",
          "type": "uint256"
        },
        {
          "internalType": "bytes32",
          "name": "commitment",
          "type": "bytes32"
        }
      ],
      "name": "commit",
      "outputs": [],
      "stateMutability": "nonpayable",
      "type": "function"
    },
    {
      "inputs": [
        {
          "internalType": "address",
          "name": "playerA",
          "type": "address"
        },
        {
          "internalType": "address",
          "name": "playerB",
          "type": "address"
        }
      ],
      "name": "createRoom",
      "outputs": [],
      "stateMutability": "nonpayable",
      "type": "function"
    },
    {
      "inputs": [],
      "name": "distributor",
      "outputs": [
        {
          "internalType": "address",
          "name": "",
          "type": "address"
        }
      ],
      "stateMutability": "view",
      "type": "function"
    },
    {
      "inputs": [
        {
          "internalType": "bytes32",
          "name": "role",
          "type": "bytes32"
        }
      ],
      "name": "getRoleAdmin",
      "outputs": [
        {
          "internalType": "bytes32",
          "name": "",
          "type": "bytes32"
        }
      ],
      "stateMutability": "view",
      "type": "function"
    },
    {
      "inputs": [
        {
          "internalType": "uint256",
          "name": "",
          "type": "uint256"
        }
      ],
      "name": "getRoomById",
      "outputs": [
        {
          "internalType": "uint256",
          "name": "id",
          "type": "uint256"
        },
        {
          "components": [
            {
              "internalType": "address",
              "name": "playerAddress",
              "type": "address"
            },
            {
              "internalType": "bool",
              "name": "commited",
              "type": "bool"
            },
            {
              "internalType": "bool",
              "name": "revealed",
              "type": "bool"
            },
            {
              "internalType": "enum IGameV2.Choice",
              "name": "choice",
              "type": "uint8"
            },
            {
              "internalType": "bytes32",
              "name": "commitment",
              "type": "bytes32"
            }
          ],
          "internalType": "struct IGameV2.Player",
          "name": "player0",
          "type": "tuple"
        },
        {
          "components": [
            {
              "internalType": "address",
              "name": "playerAddress",
              "type": "address"
            },
            {
              "internalType": "bool",
              "name": "commited",
              "type": "bool"
            },
            {
              "internalType": "bool",
              "name": "revealed",
              "type": "bool"
            },
            {
              "internalType": "enum IGameV2.Choice",
              "name": "choice",
              "type": "uint8"
            },
            {
              "internalType": "bytes32",
              "name": "commitment",
              "type": "bytes32"
            }
          ],
          "internalType": "struct IGameV2.Player",
          "name": "player1",
          "type": "tuple"
        },
        {
          "internalType": "enum IGameV2.Stage",
          "name": "stage",
          "type": "uint8"
        },
        {
          "internalType": "uint256",
          "name": "gameCounter",
          "type": "uint256"
        }
      ],
      "stateMutability": "view",
      "type": "function"
    },
    {
      "inputs": [
        {
          "internalType": "address",
          "name": "",
          "type": "address"
        },
        {
          "internalType": "address",
          "name": "",
          "type": "address"
        }
      ],
      "name": "getRoomByPlayerAddresses",
      "outputs": [
        {
          "internalType": "uint256",
          "name": "",
          "type": "uint256"
        }
      ],
      "stateMutability": "view",
      "type": "function"
    },
    {
      "inputs": [
        {
          "internalType": "bytes32",
          "name": "role",
          "type": "bytes32"
        },
        {
          "internalType": "address",
          "name": "account",
          "type": "address"
        }
      ],
      "name": "grantRole",
      "outputs": [],
      "stateMutability": "nonpayable",
      "type": "function"
    },
    {
      "inputs": [
        {
          "internalType": "bytes32",
          "name": "role",
          "type": "bytes32"
        },
        {
          "internalType": "address",
          "name": "account",
          "type": "address"
        }
      ],
      "name": "hasRole",
      "outputs": [
        {
          "internalType": "bool",
          "name": "",
          "type": "bool"
        }
      ],
      "stateMutability": "view",
      "type": "function"
    },
    {
      "inputs": [
        {
          "internalType": "uint256",
          "name": "roomId",
          "type": "uint256"
        },
        {
          "internalType": "enum IGameV2.Stage",
          "name": "stage",
          "type": "uint8"
        }
      ],
      "name": "nextStage",
      "outputs": [],
      "stateMutability": "nonpayable",
      "type": "function"
    },
    {
      "inputs": [
        {
          "internalType": "bytes32",
          "name": "role",
          "type": "bytes32"
        },
        {
          "internalType": "address",
          "name": "account",
          "type": "address"
        }
      ],
      "name": "renounceRole",
      "outputs": [],
      "stateMutability": "nonpayable",
      "type": "function"
    },
    {
      "inputs": [
        {
          "internalType": "uint256",
          "name": "roomId",
          "type": "uint256"
        },
        {
          "internalType": "enum IGameV2.Choice",
          "name": "choice",
          "type": "uint8"
        },
        {
          "internalType": "bytes32",
          "name": "key",
          "type": "bytes32"
        }
      ],
      "name": "reveal",
      "outputs": [],
      "stateMutability": "nonpayable",
      "type": "function"
    },
    {
      "inputs": [
        {
          "internalType": "bytes32",
          "name": "role",
          "type": "bytes32"
        },
        {
          "internalType": "address",
          "name": "account",
          "type": "address"
        }
      ],
      "name": "revokeRole",
      "outputs": [],
      "stateMutability": "nonpayable",
      "type": "function"
    },
    {
      "inputs": [
        {
          "internalType": "bytes4",
          "name": "interfaceId",
          "type": "bytes4"
        }
      ],
      "name": "supportsInterface",
      "outputs": [
        {
          "internalType": "bool",
          "name": "",
          "type": "bool"
        }
      ],
      "stateMutability": "view",
      "type": "function"
    }
  ],
  "bytecode": "0x60a06040523480156200001157600080fd5b5060405162002b5e38038062002b5e83398181016040528101906200003791906200039d565b620000956040516020016200004c906200041d565b6040516020818303038152906040528051906020012060405160200162000073906200041d565b60405160208183030381529060405280519060200120620001a160201b60201c565b620000f3604051602001620000aa9062000434565b60405160208183030381529060405280519060200120604051602001620000d1906200041d565b60405160208183030381529060405280519060200120620001a160201b60201c565b6200012b60405160200162000108906200041d565b60405160208183030381529060405280519060200120336200020460201b60201c565b62000163604051602001620001409062000434565b60405160208183030381529060405280519060200120826200020460201b60201c565b8073ffffffffffffffffffffffffffffffffffffffff1660808173ffffffffffffffffffffffffffffffffffffffff1660601b8152505050620004fb565b6000620001b483620002f560201b60201c565b905081600080858152602001908152602001600020600101819055508181847fbd79b86ffe0ab8e8776151514217cd7cacd52c909f66475c3af44e129f0b00ff60405160405180910390a4505050565b6200021682826200031460201b60201c565b620002f157600160008084815260200190815260200160002060000160008373ffffffffffffffffffffffffffffffffffffffff1673ffffffffffffffffffffffffffffffffffffffff16815260200190815260200160002060006101000a81548160ff021916908315150217905550620002966200037e60201b60201c565b73ffffffffffffffffffffffffffffffffffffffff168173ffffffffffffffffffffffffffffffffffffffff16837f2f8788117e7eff1d82e926ec794901d17c78024a50270940304540a733656f0d60405160405180910390a45b5050565b6000806000838152602001908152602001600020600101549050919050565b600080600084815260200190815260200160002060000160008373ffffffffffffffffffffffffffffffffffffffff1673ffffffffffffffffffffffffffffffffffffffff16815260200190815260200160002060009054906101000a900460ff16905092915050565b600033905090565b6000815190506200039781620004e1565b92915050565b600060208284031215620003b657620003b56200048a565b5b6000620003c68482850162000386565b91505092915050565b6000620003de600a836200044b565b9150620003eb826200048f565b600a82019050919050565b6000620004056010836200044b565b91506200041282620004b8565b601082019050919050565b60006200042a82620003cf565b9150819050919050565b60006200044182620003f6565b9150819050919050565b600081905092915050565b600062000463826200046a565b9050919050565b600073ffffffffffffffffffffffffffffffffffffffff82169050919050565b600080fd5b7f4f574e45525f524f4c4500000000000000000000000000000000000000000000600082015250565b7f4449535452494255544f525f524f4c4500000000000000000000000000000000600082015250565b620004ec8162000456565b8114620004f857600080fd5b50565b60805160601c6126446200051a6000396000610a2301526126446000f3fe608060405234801561001057600080fd5b50600436106101005760003560e01c8063bfe1092811610097578063f0bd87cc11610066578063f0bd87cc146102af578063f2f03877146102cd578063f9a5918f146102e9578063fe5090161461030557610100565b8063bfe109281461023b578063d222871e14610259578063d547741f14610275578063e58378bb1461029157610100565b806336568abe116100d357806336568abe146101b557806391d14854146101d15780639a42f3aa14610201578063a217fddf1461021d57610100565b806301ffc9a714610105578063248a9ca3146101355780632f2ff15d146101655780633495655a14610181575b600080fd5b61011f600480360381019061011a9190611bdb565b610335565b60405161012c9190611ff8565b60405180910390f35b61014f600480360381019061014a9190611b6e565b6103af565b60405161015c9190612013565b60405180910390f35b61017f600480360381019061017a9190611b9b565b6103ce565b005b61019b60048036038101906101969190611c08565b6103ef565b6040516101ac9594939291906120e1565b60405180910390f35b6101cf60048036038101906101ca9190611b9b565b6105e8565b005b6101eb60048036038101906101e69190611b9b565b61066b565b6040516101f89190611ff8565b60405180910390f35b61021b60048036038101906102169190611c75565b6106d5565b005b610225610a1a565b6040516102329190612013565b60405180910390f35b610243610a21565b6040516102509190611fa6565b60405180910390f35b610273600480360381019061026e9190611cc8565b610a45565b005b61028f600480360381019061028a9190611b9b565b610b63565b005b610299610b84565b6040516102a69190612013565b60405180910390f35b6102b7610bac565b6040516102c49190612013565b60405180910390f35b6102e760048036038101906102e29190611c35565b610bd4565b005b61030360048036038101906102fe9190611b2e565b610e4a565b005b61031f600480360381019061031a9190611b2e565b611402565b60405161032c91906120c6565b60405180910390f35b60007f7965db0b000000000000000000000000000000000000000000000000000000007bffffffffffffffffffffffffffffffffffffffffffffffffffffffff1916827bffffffffffffffffffffffffffffffffffffffffffffffffffffffff191614806103a857506103a782611427565b5b9050919050565b6000806000838152602001908152602001600020600101549050919050565b6103d7826103af565b6103e081611491565b6103ea83836114a5565b505050565b6002602052806000526040600020600091509050806000015490806001016040518060a00160405290816000820160009054906101000a900473ffffffffffffffffffffffffffffffffffffffff1673ffffffffffffffffffffffffffffffffffffffff1673ffffffffffffffffffffffffffffffffffffffff1681526020016000820160149054906101000a900460ff161515151581526020016000820160159054906101000a900460ff161515151581526020016000820160169054906101000a900460ff1660038111156104c9576104c86123ab565b5b60038111156104db576104da6123ab565b5b815260200160018201548152505090806003016040518060a00160405290816000820160009054906101000a900473ffffffffffffffffffffffffffffffffffffffff1673ffffffffffffffffffffffffffffffffffffffff1673ffffffffffffffffffffffffffffffffffffffff1681526020016000820160149054906101000a900460ff161515151581526020016000820160159054906101000a900460ff161515151581526020016000820160169054906101000a900460ff1660038111156105aa576105a96123ab565b5b60038111156105bc576105bb6123ab565b5b8152602001600182015481525050908060050160009054906101000a900460ff16908060060154905085565b6105f0611585565b73ffffffffffffffffffffffffffffffffffffffff168173ffffffffffffffffffffffffffffffffffffffff161461065d576040517f08c379a0000000000000000000000000000000000000000000000000000000008152600401610654906120a6565b60405180910390fd5b610667828261158d565b5050565b600080600084815260200190815260200160002060000160008373ffffffffffffffffffffffffffffffffffffffff1673ffffffffffffffffffffffffffffffffffffffff16815260200190815260200160002060009054906101000a900460ff16905092915050565b600060026000858152602001908152602001600020905060008160000154141561072b576040517fb70c1fec00000000000000000000000000000000000000000000000000000000815260040160405180910390fd5b3373ffffffffffffffffffffffffffffffffffffffff168160010160000160009054906101000a900473ffffffffffffffffffffffffffffffffffffffff1673ffffffffffffffffffffffffffffffffffffffff16141580156107e157503373ffffffffffffffffffffffffffffffffffffffff168160030160000160009054906101000a900473ffffffffffffffffffffffffffffffffffffffff1673ffffffffffffffffffffffffffffffffffffffff1614155b15610818576040517f1f42735400000000000000000000000000000000000000000000000000000000815260040160405180910390fd5b6001600281111561082c5761082b6123ab565b5b8160050160009054906101000a900460ff1660028111156108505761084f6123ab565b5b14610887576040517fa05e34ba00000000000000000000000000000000000000000000000000000000815260040160405180910390fd5b6001600381111561089b5761089a6123ab565b5b8360038111156108ae576108ad6123ab565b5b141580156108e15750600260038111156108cb576108ca6123ab565b5b8360038111156108de576108dd6123ab565b5b14155b801561091157506003808111156108fb576108fa6123ab565b5b83600381111561090e5761090d6123ab565b5b14155b15610948576040517f20edc18500000000000000000000000000000000000000000000000000000000815260040160405180910390fd5b3373ffffffffffffffffffffffffffffffffffffffff168160010160000160009054906101000a900473ffffffffffffffffffffffffffffffffffffffff1673ffffffffffffffffffffffffffffffffffffffff1614156109b6576109b181600101848461166e565b6109c5565b6109c481600301848461166e565b5b3373ffffffffffffffffffffffffffffffffffffffff16847fc98953cfdaf1355ff1a9db2d4975230864cb314b479eb1b02301c6523491216385604051610a0c919061202e565b60405180910390a350505050565b6000801b81565b7f000000000000000000000000000000000000000000000000000000000000000081565b604051602001610a5490611f91565b60405160208183030381529060405280519060200120610a7381611491565b6000600260008581526020019081526020016000209050826002811115610a9d57610a9c6123ab565b5b8160050160009054906101000a900460ff166002811115610ac157610ac06123ab565b5b1415610af9576040517fa05e34ba00000000000000000000000000000000000000000000000000000000815260040160405180910390fd5b828160050160006101000a81548160ff02191690836002811115610b2057610b1f6123ab565b5b0217905550837fdf37221aaffab5daec18329c74e9de71f26727289dfefd6e144987965be79ef384604051610b559190612049565b60405180910390a250505050565b610b6c826103af565b610b7581611491565b610b7f838361158d565b505050565b604051602001610b9390611f42565b6040516020818303038152906040528051906020012081565b604051602001610bbb90611f91565b6040516020818303038152906040528051906020012081565b6000600260008481526020019081526020016000209050600081600001541415610c2a576040517fb70c1fec00000000000000000000000000000000000000000000000000000000815260040160405180910390fd5b3373ffffffffffffffffffffffffffffffffffffffff168160010160000160009054906101000a900473ffffffffffffffffffffffffffffffffffffffff1673ffffffffffffffffffffffffffffffffffffffff1614158015610ce057503373ffffffffffffffffffffffffffffffffffffffff168160030160000160009054906101000a900473ffffffffffffffffffffffffffffffffffffffff1673ffffffffffffffffffffffffffffffffffffffff1614155b15610d17576040517f1f42735400000000000000000000000000000000000000000000000000000000815260040160405180910390fd5b60006002811115610d2b57610d2a6123ab565b5b8160050160009054906101000a900460ff166002811115610d4f57610d4e6123ab565b5b14610d86576040517fa05e34ba00000000000000000000000000000000000000000000000000000000815260040160405180910390fd5b3373ffffffffffffffffffffffffffffffffffffffff168160010160000160009054906101000a900473ffffffffffffffffffffffffffffffffffffffff1673ffffffffffffffffffffffffffffffffffffffff161415610df357610dee8160010183611764565b610e01565b610e008160030183611764565b5b3373ffffffffffffffffffffffffffffffffffffffff16837f2f63308b073d0d25029a549b999d196c6bbc8b3bdb3b694d879a74d070ddbe9a60405160405180910390a3505050565b8073ffffffffffffffffffffffffffffffffffffffff168273ffffffffffffffffffffffffffffffffffffffff161415610e8357600080fd5b6000808273ffffffffffffffffffffffffffffffffffffffff168473ffffffffffffffffffffffffffffffffffffffff1610610ec0578284610ec3565b83835b91509150600073ffffffffffffffffffffffffffffffffffffffff168273ffffffffffffffffffffffffffffffffffffffff161415610f0157600080fd5b6000600160008473ffffffffffffffffffffffffffffffffffffffff1673ffffffffffffffffffffffffffffffffffffffff16815260200190815260200160002060008373ffffffffffffffffffffffffffffffffffffffff1673ffffffffffffffffffffffffffffffffffffffff1681526020019081526020016000205414610f8a57600080fd5b60006040518060a001604052808473ffffffffffffffffffffffffffffffffffffffff16815260200160001515815260200160001515815260200160006003811115610fd957610fd86123ab565b5b81526020016000801b815250905060006040518060a001604052808473ffffffffffffffffffffffffffffffffffffffff16815260200160001515815260200160001515815260200160006003811115611036576110356123ab565b5b81526020016000801b81525090506003600081548092919061105790612333565b91905055506040518060a0016040528060035481526020018381526020018281526020016000600281111561108f5761108e6123ab565b5b815260200160008152506002600060035481526020019081526020016000206000820151816000015560208201518160010160008201518160000160006101000a81548173ffffffffffffffffffffffffffffffffffffffff021916908373ffffffffffffffffffffffffffffffffffffffff16021790555060208201518160000160146101000a81548160ff02191690831515021790555060408201518160000160156101000a81548160ff02191690831515021790555060608201518160000160166101000a81548160ff02191690836003811115611173576111726123ab565b5b021790555060808201518160010155505060408201518160030160008201518160000160006101000a81548173ffffffffffffffffffffffffffffffffffffffff021916908373ffffffffffffffffffffffffffffffffffffffff16021790555060208201518160000160146101000a81548160ff02191690831515021790555060408201518160000160156101000a81548160ff02191690831515021790555060608201518160000160166101000a81548160ff0219169083600381111561123f5761123e6123ab565b5b021790555060808201518160010155505060608201518160050160006101000a81548160ff0219169083600281111561127b5761127a6123ab565b5b021790555060808201518160060155905050600354600160008673ffffffffffffffffffffffffffffffffffffffff1673ffffffffffffffffffffffffffffffffffffffff16815260200190815260200160002060008573ffffffffffffffffffffffffffffffffffffffff1673ffffffffffffffffffffffffffffffffffffffff16815260200190815260200160002081905550600354600160008573ffffffffffffffffffffffffffffffffffffffff1673ffffffffffffffffffffffffffffffffffffffff16815260200190815260200160002060008673ffffffffffffffffffffffffffffffffffffffff1673ffffffffffffffffffffffffffffffffffffffff168152602001908152602001600020819055508273ffffffffffffffffffffffffffffffffffffffff168473ffffffffffffffffffffffffffffffffffffffff167f6849f7a409ad97d39c5ffa074bf765330bf1a574da99d4c4831196ecd77ea8da6003546040516113f291906120c6565b60405180910390a3505050505050565b6001602052816000526040600020602052806000526040600020600091509150505481565b60007f01ffc9a7000000000000000000000000000000000000000000000000000000007bffffffffffffffffffffffffffffffffffffffffffffffffffffffff1916827bffffffffffffffffffffffffffffffffffffffffffffffffffffffff1916149050919050565b6114a28161149d611585565b6117d7565b50565b6114af828261066b565b61158157600160008084815260200190815260200160002060000160008373ffffffffffffffffffffffffffffffffffffffff1673ffffffffffffffffffffffffffffffffffffffff16815260200190815260200160002060006101000a81548160ff021916908315150217905550611526611585565b73ffffffffffffffffffffffffffffffffffffffff168173ffffffffffffffffffffffffffffffffffffffff16837f2f8788117e7eff1d82e926ec794901d17c78024a50270940304540a733656f0d60405160405180910390a45b5050565b600033905090565b611597828261066b565b1561166a57600080600084815260200190815260200160002060000160008373ffffffffffffffffffffffffffffffffffffffff1673ffffffffffffffffffffffffffffffffffffffff16815260200190815260200160002060006101000a81548160ff02191690831515021790555061160f611585565b73ffffffffffffffffffffffffffffffffffffffff168173ffffffffffffffffffffffffffffffffffffffff16837ff6391f5c32d9c69d2a47ea670b442974b53935d1edc7fd64eb21e047a839171b60405160405180910390a45b5050565b8260000160159054906101000a900460ff16156116b7576040517fa89ac15100000000000000000000000000000000000000000000000000000000815260040160405180910390fd5b82600101548360000160009054906101000a900473ffffffffffffffffffffffffffffffffffffffff1683836040516020016116f593929190611fc1565b6040516020818303038152906040528051906020012014611742576040517f0af806e000000000000000000000000000000000000000000000000000000000815260040160405180910390fd5b60018360000160156101000a81548160ff021916908315150217905550505050565b8160000160149054906101000a900460ff16156117ad576040517ffc507a3100000000000000000000000000000000000000000000000000000000815260040160405180910390fd5b80826001018190555060018260000160146101000a81548160ff0219169083151502179055505050565b6117e1828261066b565b611870576118068173ffffffffffffffffffffffffffffffffffffffff166014611874565b6118148360001c6020611874565b604051602001611825929190611f57565b6040516020818303038152906040526040517f08c379a00000000000000000000000000000000000000000000000000000000081526004016118679190612064565b60405180910390fd5b5050565b60606000600283600261188791906121b4565b611891919061215e565b67ffffffffffffffff8111156118aa576118a9612409565b5b6040519080825280601f01601f1916602001820160405280156118dc5781602001600182028036833780820191505090505b5090507f300000000000000000000000000000000000000000000000000000000000000081600081518110611914576119136123da565b5b60200101907effffffffffffffffffffffffffffffffffffffffffffffffffffffffffffff1916908160001a9053507f780000000000000000000000000000000000000000000000000000000000000081600181518110611978576119776123da565b5b60200101907effffffffffffffffffffffffffffffffffffffffffffffffffffffffffffff1916908160001a905350600060018460026119b891906121b4565b6119c2919061215e565b90505b6001811115611a62577f3031323334353637383961626364656600000000000000000000000000000000600f861660108110611a0457611a036123da565b5b1a60f81b828281518110611a1b57611a1a6123da565b5b60200101907effffffffffffffffffffffffffffffffffffffffffffffffffffffffffffff1916908160001a905350600485901c945080611a5b90612309565b90506119c5565b5060008414611aa6576040517f08c379a0000000000000000000000000000000000000000000000000000000008152600401611a9d90612086565b60405180910390fd5b8091505092915050565b600081359050611abf81612592565b92915050565b600081359050611ad4816125a9565b92915050565b600081359050611ae9816125c0565b92915050565b600081359050611afe816125d7565b92915050565b600081359050611b13816125e7565b92915050565b600081359050611b28816125f7565b92915050565b60008060408385031215611b4557611b44612438565b5b6000611b5385828601611ab0565b9250506020611b6485828601611ab0565b9150509250929050565b600060208284031215611b8457611b83612438565b5b6000611b9284828501611ac5565b91505092915050565b60008060408385031215611bb257611bb1612438565b5b6000611bc085828601611ac5565b9250506020611bd185828601611ab0565b9150509250929050565b600060208284031215611bf157611bf0612438565b5b6000611bff84828501611ada565b91505092915050565b600060208284031215611c1e57611c1d612438565b5b6000611c2c84828501611b19565b91505092915050565b60008060408385031215611c4c57611c4b612438565b5b6000611c5a85828601611b19565b9250506020611c6b85828601611ac5565b9150509250929050565b600080600060608486031215611c8e57611c8d612438565b5b6000611c9c86828701611b19565b9350506020611cad86828701611aef565b9250506040611cbe86828701611ac5565b9150509250925092565b60008060408385031215611cdf57611cde612438565b5b6000611ced85828601611b19565b9250506020611cfe85828601611b04565b9150509250929050565b611d118161220e565b82525050565b611d208161220e565b82525050565b611d2f81612220565b82525050565b611d3e81612220565b82525050565b611d4d8161222c565b82525050565b611d5c8161222c565b82525050565b611d6b816122b2565b82525050565b611d7a816122b2565b82525050565b611d89816122c4565b82525050565b6000611d9a82612137565b611da48185612142565b9350611db48185602086016122d6565b611dbd8161243d565b840191505092915050565b6000611dd382612137565b611ddd8185612153565b9350611ded8185602086016122d6565b80840191505092915050565b6000611e06602083612142565b9150611e118261244e565b602082019050919050565b6000611e29600a83612153565b9150611e3482612477565b600a82019050919050565b6000611e4c601783612153565b9150611e57826124a0565b601782019050919050565b6000611e6f601183612153565b9150611e7a826124c9565b601182019050919050565b6000611e92602f83612142565b9150611e9d826124f2565b604082019050919050565b6000611eb5601083612153565b9150611ec082612541565b601082019050919050565b60a082016000820151611ee16000850182611d08565b506020820151611ef46020850182611d26565b506040820151611f076040850182611d26565b506060820151611f1a6060850182611d62565b506080820151611f2d6080850182611d44565b50505050565b611f3c816122a8565b82525050565b6000611f4d82611e1c565b9150819050919050565b6000611f6282611e3f565b9150611f6e8285611dc8565b9150611f7982611e62565b9150611f858284611dc8565b91508190509392505050565b6000611f9c82611ea8565b9150819050919050565b6000602082019050611fbb6000830184611d17565b92915050565b6000606082019050611fd66000830186611d17565b611fe36020830185611d71565b611ff06040830184611d53565b949350505050565b600060208201905061200d6000830184611d35565b92915050565b60006020820190506120286000830184611d53565b92915050565b60006020820190506120436000830184611d71565b92915050565b600060208201905061205e6000830184611d80565b92915050565b6000602082019050818103600083015261207e8184611d8f565b905092915050565b6000602082019050818103600083015261209f81611df9565b9050919050565b600060208201905081810360008301526120bf81611e85565b9050919050565b60006020820190506120db6000830184611f33565b92915050565b60006101a0820190506120f76000830188611f33565b6121046020830187611ecb565b61211160c0830186611ecb565b61211f610160830185611d80565b61212d610180830184611f33565b9695505050505050565b600081519050919050565b600082825260208201905092915050565b600081905092915050565b6000612169826122a8565b9150612174836122a8565b9250827fffffffffffffffffffffffffffffffffffffffffffffffffffffffffffffffff038211156121a9576121a861237c565b5b828201905092915050565b60006121bf826122a8565b91506121ca836122a8565b9250817fffffffffffffffffffffffffffffffffffffffffffffffffffffffffffffffff04831182151516156122035761220261237c565b5b828202905092915050565b600061221982612288565b9050919050565b60008115159050919050565b6000819050919050565b60007fffffffff0000000000000000000000000000000000000000000000000000000082169050919050565b60008190506122708261256a565b919050565b60008190506122838261257e565b919050565b600073ffffffffffffffffffffffffffffffffffffffff82169050919050565b6000819050919050565b60006122bd82612262565b9050919050565b60006122cf82612275565b9050919050565b60005b838110156122f45780820151818401526020810190506122d9565b83811115612303576000848401525b50505050565b6000612314826122a8565b915060008214156123285761232761237c565b5b600182039050919050565b600061233e826122a8565b91507fffffffffffffffffffffffffffffffffffffffffffffffffffffffffffffffff8214156123715761237061237c565b5b600182019050919050565b7f4e487b7100000000000000000000000000000000000000000000000000000000600052601160045260246000fd5b7f4e487b7100000000000000000000000000000000000000000000000000000000600052602160045260246000fd5b7f4e487b7100000000000000000000000000000000000000000000000000000000600052603260045260246000fd5b7f4e487b7100000000000000000000000000000000000000000000000000000000600052604160045260246000fd5b600080fd5b6000601f19601f8301169050919050565b7f537472696e67733a20686578206c656e67746820696e73756666696369656e74600082015250565b7f4f574e45525f524f4c4500000000000000000000000000000000000000000000600082015250565b7f416363657373436f6e74726f6c3a206163636f756e7420000000000000000000600082015250565b7f206973206d697373696e6720726f6c6520000000000000000000000000000000600082015250565b7f416363657373436f6e74726f6c3a2063616e206f6e6c792072656e6f756e636560008201527f20726f6c657320666f722073656c660000000000000000000000000000000000602082015250565b7f4449535452494255544f525f524f4c4500000000000000000000000000000000600082015250565b6004811061257b5761257a6123ab565b5b50565b6003811061258f5761258e6123ab565b5b50565b61259b8161220e565b81146125a657600080fd5b50565b6125b28161222c565b81146125bd57600080fd5b50565b6125c981612236565b81146125d457600080fd5b50565b600481106125e457600080fd5b50565b600381106125f457600080fd5b50565b612600816122a8565b811461260b57600080fd5b5056fea26469706673582212204da27a7f3712d0b5744d09d2a08ad8cd2cee8992cee3ceca91114a14e755187464736f6c63430008070033",
  "linkReferences": {},
  "deployedLinkReferences": {}
}